{
  "contractName": "OracleAggregator",
  "abi": [
    {
      "constant": true,
      "inputs": [
        {
          "internalType": "address",
          "name": "",
          "type": "address"
        },
        {
          "internalType": "uint256",
          "name": "",
          "type": "uint256"
        }
      ],
      "name": "dataCache",
      "outputs": [
        {
          "internalType": "uint256",
          "name": "",
          "type": "uint256"
        }
      ],
      "payable": false,
      "stateMutability": "view",
      "type": "function"
    },
    {
      "constant": true,
      "inputs": [
        {
          "internalType": "address",
          "name": "",
          "type": "address"
        },
        {
          "internalType": "uint256",
          "name": "",
          "type": "uint256"
        }
      ],
      "name": "dataExist",
      "outputs": [
        {
          "internalType": "bool",
          "name": "",
          "type": "bool"
        }
      ],
      "payable": false,
      "stateMutability": "view",
      "type": "function"
    },
    {
      "constant": true,
      "inputs": [
        {
          "internalType": "address",
          "name": "",
          "type": "address"
        },
        {
          "internalType": "uint256",
          "name": "",
          "type": "uint256"
        }
      ],
      "name": "dataRequested",
      "outputs": [
        {
          "internalType": "bool",
          "name": "",
          "type": "bool"
        }
      ],
      "payable": false,
      "stateMutability": "view",
      "type": "function"
    },
    {
      "constant": false,
      "inputs": [
        {
          "internalType": "address",
          "name": "oracleId",
          "type": "address"
        },
        {
          "internalType": "uint256",
          "name": "timestamp",
          "type": "uint256"
        }
      ],
      "name": "fetchData",
      "outputs": [],
      "payable": true,
      "stateMutability": "payable",
      "type": "function"
    },
    {
      "constant": false,
      "inputs": [
        {
          "internalType": "address",
          "name": "oracleId",
          "type": "address"
        },
        {
          "internalType": "uint256",
          "name": "timestamp",
          "type": "uint256"
        },
        {
          "internalType": "uint256",
          "name": "period",
          "type": "uint256"
        },
        {
          "internalType": "uint256",
          "name": "times",
          "type": "uint256"
        }
      ],
      "name": "recursivelyFetchData",
      "outputs": [],
      "payable": true,
      "stateMutability": "payable",
      "type": "function"
    },
    {
      "constant": false,
      "inputs": [
        {
          "internalType": "uint256",
          "name": "timestamp",
          "type": "uint256"
        },
        {
          "internalType": "uint256",
          "name": "data",
          "type": "uint256"
        }
      ],
      "name": "__callback",
      "outputs": [],
      "payable": false,
      "stateMutability": "nonpayable",
      "type": "function"
    },
    {
      "constant": false,
      "inputs": [
        {
          "internalType": "address",
          "name": "oracleId",
          "type": "address"
        }
      ],
      "name": "calculateFetchPrice",
      "outputs": [
        {
          "internalType": "uint256",
          "name": "fetchPrice",
          "type": "uint256"
        }
      ],
      "payable": false,
      "stateMutability": "nonpayable",
      "type": "function"
    },
    {
      "constant": true,
      "inputs": [
        {
          "internalType": "address",
          "name": "oracleId",
          "type": "address"
        },
        {
          "internalType": "uint256",
          "name": "timestamp",
          "type": "uint256"
        }
      ],
      "name": "getData",
      "outputs": [
        {
          "internalType": "uint256",
          "name": "dataResult",
          "type": "uint256"
        }
      ],
      "payable": false,
      "stateMutability": "view",
      "type": "function"
    },
    {
      "constant": true,
      "inputs": [
        {
          "internalType": "address",
          "name": "oracleId",
          "type": "address"
        },
        {
          "internalType": "uint256",
          "name": "timestamp",
          "type": "uint256"
        }
      ],
      "name": "hasData",
      "outputs": [
        {
          "internalType": "bool",
          "name": "result",
          "type": "bool"
        }
      ],
      "payable": false,
      "stateMutability": "view",
      "type": "function"
    }
  ],
  "bytecode": "0x60806040526001600055610a3f806100186000396000f3fe6080604052600436106100865760003560e01c80637cfe193a116100595780637cfe193a14610188578063904760c5146101b457806394194f2c146101ed578063b261790914610226578063c8384d2f1461025e57610086565b8063054851721461008b5780632979d025146100d05780633102e5ab146101095780633c0ef8f21461013b575b600080fd5b34801561009757600080fd5b506100be600480360360208110156100ae57600080fd5b50356001600160a01b0316610297565b60408051918252519081900360200190f35b3480156100dc57600080fd5b506100be600480360360408110156100f357600080fd5b506001600160a01b038135169060200135610306565b34801561011557600080fd5b506101396004803603604081101561012c57600080fd5b50803590602001356103dd565b005b34801561014757600080fd5b506101746004803603604081101561015e57600080fd5b506001600160a01b0381351690602001356104a0565b604080519115158252519081900360200190f35b6101396004803603604081101561019e57600080fd5b506001600160a01b0381351690602001356104c0565b3480156101c057600080fd5b50610174600480360360408110156101d757600080fd5b506001600160a01b03813516906020013561061b565b3480156101f957600080fd5b506100be6004803603604081101561021057600080fd5b506001600160a01b03813516906020013561063b565b6101396004803603608081101561023c57600080fd5b506001600160a01b038135169060208101359060408101359060600135610658565b34801561026a57600080fd5b506101746004803603604081101561028157600080fd5b506001600160a01b0381351690602001356107dc565b6000816001600160a01b0316637bc9f04a6040518163ffffffff1660e01b8152600401602060405180830381600087803b1580156102d457600080fd5b505af11580156102e8573d6000803e3d6000fd5b505050506040513d60208110156102fe57600080fd5b505192915050565b600061031283836107dc565b6040518060600160405280602381526020016109e860239139906103b45760405162461bcd60e51b81526004018080602001828103825283818151815260200191508051906020019080838360005b83811015610379578181015183820152602001610361565b50505050905090810190601f1680156103a65780820380516001836020036101000a031916815260200191505b509250505060405180910390fd5b50506001600160a01b039091166000908152600160209081526040808320938352929052205490565b33600090815260026020908152604080832085845282529182902054825160608101909352602480845260ff90911615929161095990830139906104625760405162461bcd60e51b8152602060048201818152835160248401528351909283926044909101919085019080838360008315610379578181015183820152602001610361565b50336000818152600160208181526040808420878552825280842095909555928252600283528382209482529390915220805460ff19169091179055565b600360209081526000928352604080842090915290825290205460ff1681565b600080546001908101808355918491906104d983610297565b90506104eb818363ffffffff61080a16565b3410156040518060600160405280602281526020016109c660229139906105535760405162461bcd60e51b8152602060048201818152835160248401528351909283926044909101919085019080838360008315610379578181015183820152602001610361565b5061055e868661086a565b856001600160a01b031663864905ba34876040518363ffffffff1660e01b8152600401808281526020019150506000604051808303818588803b1580156105a457600080fd5b505af11580156105b8573d6000803e3d6000fd5b50505050505050506000548114610616576040805162461bcd60e51b815260206004820152601f60248201527f5265656e7472616e637947756172643a207265656e7472616e742063616c6c00604482015290519081900360640190fd5b505050565b600260209081526000928352604080842090915290825290205460ff1681565b600160209081526000928352604080842090915290825290205481565b60008054600101808255908590839061067083610297565b9050610682818363ffffffff61080a16565b3410156040518060600160405280602281526020016109c660229139906106ea5760405162461bcd60e51b8152602060048201818152835160248401528351909283926044909101919085019080838360008315610379578181015183820152602001610361565b5060005b8581101561070c57610704898289028a0161086a565b6001016106ee565b50876001600160a01b031663760768db348989896040518563ffffffff1660e01b81526004018084815260200183815260200182815260200193505050506000604051808303818588803b15801561076357600080fd5b505af1158015610777573d6000803e3d6000fd5b505050505050505060005481146107d5576040805162461bcd60e51b815260206004820152601f60248201527f5265656e7472616e637947756172643a207265656e7472616e742063616c6c00604482015290519081900360640190fd5b5050505050565b6001600160a01b038216600090815260026020908152604080832084845290915290205460ff165b92915050565b60008261081957506000610804565b8282028284828161082657fe5b04146108635760405162461bcd60e51b81526004018080602001828103825260218152602001806109a56021913960400191505060405180910390fd5b9392505050565b6001600160a01b038216600090815260036020908152604080832084845290915290205460ff161580156108c257506001600160a01b038216600090815260026020908152604080832084845290915290205460ff16155b60405180606001604052806028815260200161097d60289139906109275760405162461bcd60e51b8152602060048201818152835160248401528351909283926044909101919085019080838360008315610379578181015183820152602001610361565b506001600160a01b03909116600090815260036020908152604080832093835292905220805460ff1916600117905556fe4f5241434c455f41474752454741544f523a444154415f414c52454144595f45584953544f5241434c455f41474752454741544f523a51554552595f5741535f414c52454144595f4d414445536166654d6174683a206d756c7469706c69636174696f6e206f766572666c6f774f5241434c455f41474752454741544f523a4e4f545f454e4f5547485f45544845524f5241434c455f41474752454741544f523a444154415f444f45534e545f4558495354a265627a7a7231582083b2a67cbb1ca7f67d7b60ffe8d956e03f9069f33803b502c9300e5f3becd8f264736f6c63430005100032",
  "source": "pragma solidity 0.5.16;\n\nimport \"openzeppelin-solidity/contracts/utils/ReentrancyGuard.sol\";\nimport \"openzeppelin-solidity/contracts/math/SafeMath.sol\";\n\nimport \"./Errors/OracleAggregatorErrors.sol\";\n\nimport \"./Interface/IOracleId.sol\";\n\n/// @title Opium.OracleAggregator contract requests and caches the data from `oracleId`s and provides them to the Core for positions execution\ncontract OracleAggregator is OracleAggregatorErrors, ReentrancyGuard {\n    using SafeMath for uint256;\n\n    // Storage for the `oracleId` results\n    // dataCache[oracleId][timestamp] => data\n    mapping (address => mapping(uint256 => uint256)) public dataCache;\n\n    // Flags whether data were provided\n    // dataExist[oracleId][timestamp] => bool\n    mapping (address => mapping(uint256 => bool)) public dataExist;\n\n    // Flags whether data were requested\n    // dataRequested[oracleId][timestamp] => bool\n    mapping (address => mapping(uint256 => bool)) public dataRequested;\n\n    // MODIFIERS\n\n    /// @notice Checks whether enough ETH were provided withing data request to proceed\n    /// @param oracleId address Address of the `oracleId` smart contract\n    /// @param times uint256 How many times the `oracleId` is being requested\n    modifier enoughEtherProvided(address oracleId, uint256 times) {\n        // Calling Opium.IOracleId function to get the data fetch price per one request\n        uint256 oneTimePrice = calculateFetchPrice(oracleId);\n\n        // Checking if enough ether was provided for `times` amount of requests\n        require(msg.value >= oneTimePrice.mul(times), ERROR_ORACLE_AGGREGATOR_NOT_ENOUGH_ETHER);\n        _;\n    }\n\n    // PUBLIC FUNCTIONS\n\n    /// @notice Requests data from `oracleId` one time\n    /// @param oracleId address Address of the `oracleId` smart contract\n    /// @param timestamp uint256 Timestamp at which data are needed\n    function fetchData(address oracleId, uint256 timestamp) public payable nonReentrant enoughEtherProvided(oracleId, 1) {\n        // Check if was not requested before and mark as requested\n        _registerQuery(oracleId, timestamp);\n\n        // Call the `oracleId` contract and transfer ETH\n        IOracleId(oracleId).fetchData.value(msg.value)(timestamp);\n    }\n\n    /// @notice Requests data from `oracleId` multiple times\n    /// @param oracleId address Address of the `oracleId` smart contract\n    /// @param timestamp uint256 Timestamp at which data are needed for the first time\n    /// @param period uint256 Period in seconds between multiple timestamps\n    /// @param times uint256 How many timestamps are requested\n    function recursivelyFetchData(address oracleId, uint256 timestamp, uint256 period, uint256 times) public payable nonReentrant enoughEtherProvided(oracleId, times) {\n        // Check if was not requested before and mark as requested in loop for each timestamp\n        for (uint256 i = 0; i < times; i++) {\t\n            _registerQuery(oracleId, timestamp + period * i);\n        }\n\n        // Call the `oracleId` contract and transfer ETH\n        IOracleId(oracleId).recursivelyFetchData.value(msg.value)(timestamp, period, times);\n    }\n\n    /// @notice Receives and caches data from `msg.sender`\n    /// @param timestamp uint256 Timestamp of data\n    /// @param data uint256 Data itself\n    function __callback(uint256 timestamp, uint256 data) public {\n        // Don't allow to push data twice\n        require(!dataExist[msg.sender][timestamp], ERROR_ORACLE_AGGREGATOR_DATA_ALREADY_EXIST);\n\n        // Saving data\n        dataCache[msg.sender][timestamp] = data;\n\n        // Flagging that data were received\n        dataExist[msg.sender][timestamp] = true;\n    }\n\n    /// @notice Requests and returns price in ETH for one request. This function could be called as `view` function. Oraclize API for price calculations restricts making this function as view.\n    /// @param oracleId address Address of the `oracleId` smart contract\n    /// @return fetchPrice uint256 Price of one data request in ETH\n    function calculateFetchPrice(address oracleId) public returns(uint256 fetchPrice) {\n        fetchPrice = IOracleId(oracleId).calculateFetchPrice();\n    }\n\n    // PRIVATE FUNCTIONS\n\n    /// @notice Checks if data was not requested and provided before and marks as requested\n    /// @param oracleId address Address of the `oracleId` smart contract\n    /// @param timestamp uint256 Timestamp at which data are requested\n    function _registerQuery(address oracleId, uint256 timestamp) private {\n        // Check if data was not requested and provided yet\n        require(!dataRequested[oracleId][timestamp] && !dataExist[oracleId][timestamp], ERROR_ORACLE_AGGREGATOR_QUERY_WAS_ALREADY_MADE);\n\n        // Mark as requested\n        dataRequested[oracleId][timestamp] = true;\t\n    }\n\n    // VIEW FUNCTIONS\n\n    /// @notice Returns cached data if they exist, or reverts with an error\n    /// @param oracleId address Address of the `oracleId` smart contract\n    /// @param timestamp uint256 Timestamp at which data were requested\n    /// @return dataResult uint256 Cached data provided by `oracleId`\n    function getData(address oracleId, uint256 timestamp) public view returns(uint256 dataResult) {\n        // Check if Opium.OracleAggregator has data\n        require(hasData(oracleId, timestamp), ERROR_ORACLE_AGGREGATOR_DATA_DOESNT_EXIST);\n\n        // Return cached data\n        dataResult = dataCache[oracleId][timestamp];\n    }\n\n    /// @notice Getter for dataExist mapping\n    /// @param oracleId address Address of the `oracleId` smart contract\n    /// @param timestamp uint256 Timestamp at which data were requested\n    /// @param result bool Returns whether data were provided already\n    function hasData(address oracleId, uint256 timestamp) public view returns(bool result) {\n        return dataExist[oracleId][timestamp];\n    }\n}\n",
  "sourcePath": "/Users/calvin/Documents/DO/0156_OpiumTests/opium-contracts/contracts/OracleAggregator.sol",
  "compiler": {
    "name": "solc",
    "version": "0.5.16+commit.9c3226ce.Emscripten.clang"
  },
  "schemaVersion": "3.4.1",
  "updatedAt": "2021-07-19T14:48:37.163Z",
  "networkType": "ethereum",
  "devdoc": {
    "methods": {
      "__callback(uint256,uint256)": {
        "params": {
          "data": "uint256 Data itself",
          "timestamp": "uint256 Timestamp of data"
        }
      },
      "calculateFetchPrice(address)": {
        "params": {
          "oracleId": "address Address of the `oracleId` smart contract"
        },
        "return": "fetchPrice uint256 Price of one data request in ETH"
      },
      "fetchData(address,uint256)": {
        "params": {
          "oracleId": "address Address of the `oracleId` smart contract",
          "timestamp": "uint256 Timestamp at which data are needed"
        }
      },
      "getData(address,uint256)": {
        "params": {
          "oracleId": "address Address of the `oracleId` smart contract",
          "timestamp": "uint256 Timestamp at which data were requested"
        },
        "return": "dataResult uint256 Cached data provided by `oracleId`"
      },
      "hasData(address,uint256)": {
        "params": {
          "oracleId": "address Address of the `oracleId` smart contract",
          "result": "bool Returns whether data were provided already",
          "timestamp": "uint256 Timestamp at which data were requested"
        }
      },
      "recursivelyFetchData(address,uint256,uint256,uint256)": {
        "params": {
          "oracleId": "address Address of the `oracleId` smart contract",
          "period": "uint256 Period in seconds between multiple timestamps",
          "times": "uint256 How many timestamps are requested",
          "timestamp": "uint256 Timestamp at which data are needed for the first time"
        }
      }
    },
    "title": "Opium.OracleAggregator contract requests and caches the data from `oracleId`s and provides them to the Core for positions execution"
  },
  "userdoc": {
    "methods": {
      "__callback(uint256,uint256)": {
        "notice": "Receives and caches data from `msg.sender`"
      },
      "calculateFetchPrice(address)": {
        "notice": "Requests and returns price in ETH for one request. This function could be called as `view` function. Oraclize API for price calculations restricts making this function as view."
      },
      "fetchData(address,uint256)": {
        "notice": "Requests data from `oracleId` one time"
      },
      "getData(address,uint256)": {
        "notice": "Returns cached data if they exist, or reverts with an error"
      },
      "hasData(address,uint256)": {
        "notice": "Getter for dataExist mapping"
      },
      "recursivelyFetchData(address,uint256,uint256,uint256)": {
        "notice": "Requests data from `oracleId` multiple times"
      }
    }
  }
}