{
  "contractName": "TokenSpender",
  "abi": [
    {
      "inputs": [
        {
          "internalType": "address",
          "name": "_governor",
          "type": "address"
        }
      ],
      "payable": false,
      "stateMutability": "nonpayable",
      "type": "constructor"
    },
    {
      "anonymous": false,
      "inputs": [
        {
          "indexed": false,
          "internalType": "uint256",
          "name": "timelock",
          "type": "uint256"
        }
      ],
      "name": "Committed",
      "type": "event"
    },
    {
      "anonymous": false,
      "inputs": [
        {
          "indexed": false,
          "internalType": "address[]",
          "name": "whitelist",
          "type": "address[]"
        }
      ],
      "name": "Committed",
      "type": "event"
    },
    {
      "anonymous": false,
      "inputs": [
        {
          "indexed": false,
          "internalType": "address",
          "name": "governor",
          "type": "address"
        }
      ],
      "name": "GovernorSet",
      "type": "event"
    },
    {
      "anonymous": false,
      "inputs": [
        {
          "indexed": false,
          "internalType": "uint256",
          "name": "timelock",
          "type": "uint256"
        }
      ],
      "name": "Proposed",
      "type": "event"
    },
    {
      "anonymous": false,
      "inputs": [
        {
          "indexed": false,
          "internalType": "address[]",
          "name": "whitelist",
          "type": "address[]"
        }
      ],
      "name": "Proposed",
      "type": "event"
    },
    {
      "constant": true,
      "inputs": [],
      "name": "WHITELIST_TIMELOCK",
      "outputs": [
        {
          "internalType": "uint256",
          "name": "",
          "type": "uint256"
        }
      ],
      "payable": false,
      "stateMutability": "view",
      "type": "function"
    },
    {
      "constant": false,
      "inputs": [],
      "name": "commitTimelock",
      "outputs": [],
      "payable": false,
      "stateMutability": "nonpayable",
      "type": "function"
    },
    {
      "constant": false,
      "inputs": [],
      "name": "commitWhitelist",
      "outputs": [],
      "payable": false,
      "stateMutability": "nonpayable",
      "type": "function"
    },
    {
      "constant": true,
      "inputs": [],
      "name": "getWhitelist",
      "outputs": [
        {
          "internalType": "address[]",
          "name": "",
          "type": "address[]"
        }
      ],
      "payable": false,
      "stateMutability": "view",
      "type": "function"
    },
    {
      "constant": true,
      "inputs": [],
      "name": "governor",
      "outputs": [
        {
          "internalType": "address",
          "name": "",
          "type": "address"
        }
      ],
      "payable": false,
      "stateMutability": "view",
      "type": "function"
    },
    {
      "constant": true,
      "inputs": [],
      "name": "proposalTime",
      "outputs": [
        {
          "internalType": "uint256",
          "name": "",
          "type": "uint256"
        }
      ],
      "payable": false,
      "stateMutability": "view",
      "type": "function"
    },
    {
      "constant": false,
      "inputs": [
        {
          "internalType": "uint256",
          "name": "_timelock",
          "type": "uint256"
        }
      ],
      "name": "proposeTimelock",
      "outputs": [],
      "payable": false,
      "stateMutability": "nonpayable",
      "type": "function"
    },
    {
      "constant": false,
      "inputs": [
        {
          "internalType": "address[]",
          "name": "_whitelist",
          "type": "address[]"
        }
      ],
      "name": "proposeWhitelist",
      "outputs": [],
      "payable": false,
      "stateMutability": "nonpayable",
      "type": "function"
    },
    {
      "constant": true,
      "inputs": [],
      "name": "proposedTimeLock",
      "outputs": [
        {
          "internalType": "uint256",
          "name": "",
          "type": "uint256"
        }
      ],
      "payable": false,
      "stateMutability": "view",
      "type": "function"
    },
    {
      "constant": true,
      "inputs": [
        {
          "internalType": "uint256",
          "name": "",
          "type": "uint256"
        }
      ],
      "name": "proposedWhitelist",
      "outputs": [
        {
          "internalType": "address",
          "name": "",
          "type": "address"
        }
      ],
      "payable": false,
      "stateMutability": "view",
      "type": "function"
    },
    {
      "constant": false,
      "inputs": [
        {
          "internalType": "address",
          "name": "_governor",
          "type": "address"
        }
      ],
      "name": "setGovernor",
      "outputs": [],
      "payable": false,
      "stateMutability": "nonpayable",
      "type": "function"
    },
    {
      "constant": true,
      "inputs": [],
      "name": "timeLockInterval",
      "outputs": [
        {
          "internalType": "uint256",
          "name": "",
          "type": "uint256"
        }
      ],
      "payable": false,
      "stateMutability": "view",
      "type": "function"
    },
    {
      "constant": true,
      "inputs": [],
      "name": "timeLockProposalTime",
      "outputs": [
        {
          "internalType": "uint256",
          "name": "",
          "type": "uint256"
        }
      ],
      "payable": false,
      "stateMutability": "view",
      "type": "function"
    },
    {
      "constant": false,
      "inputs": [
        {
          "internalType": "contract IERC20",
          "name": "token",
          "type": "address"
        },
        {
          "internalType": "address",
          "name": "from",
          "type": "address"
        },
        {
          "internalType": "address",
          "name": "to",
          "type": "address"
        },
        {
          "internalType": "uint256",
          "name": "amount",
          "type": "uint256"
        }
      ],
      "name": "claimTokens",
      "outputs": [],
      "payable": false,
      "stateMutability": "nonpayable",
      "type": "function"
    },
    {
      "constant": false,
      "inputs": [
        {
          "internalType": "contract IERC721O",
          "name": "token",
          "type": "address"
        },
        {
          "internalType": "address",
          "name": "from",
          "type": "address"
        },
        {
          "internalType": "address",
          "name": "to",
          "type": "address"
        },
        {
          "internalType": "uint256",
          "name": "tokenId",
          "type": "uint256"
        },
        {
          "internalType": "uint256",
          "name": "amount",
          "type": "uint256"
        }
      ],
      "name": "claimPositions",
      "outputs": [],
      "payable": false,
      "stateMutability": "nonpayable",
      "type": "function"
    }
  ],
  "bytecode": "0x608060405234801561001057600080fd5b506040516110143803806110148339818101604052602081101561003357600080fd5b5051610e106001819055600280546001600160a01b038085166001600160a01b03199092169190911791829055604080519290911682525183917f1cbb37f5a02c38ab13773cb770fae505cce417a4d81560117389e3a9f7e001f2919081900360200190a1505050610f6a806100aa6000396000f3fe608060405234801561001057600080fd5b50600436106100f55760003560e01c80639109b14611610097578063d497501111610066578063d4975011146102f9578063dde3c14e14610301578063e61abd4a1461031e578063ef7bac3d14610326576100f5565b80639109b146146101d0578063c42cf535146101d8578063c93f70e7146101fe578063d01f63f5146102a1576100f5565b8063184a0ae9116100d3578063184a0ae9146101645780632031f63e1461017e578063289fa9b0146101c05780633e1b2cdd146101c8576100f5565b806304f7c749146100fa5780630a5ea466146101045780630c340a2414610140575b600080fd5b610102610343565b005b6101026004803603608081101561011a57600080fd5b506001600160a01b03813581169160208101358216916040820135169060600135610472565b610148610534565b604080516001600160a01b039092168252519081900360200190f35b61016c610543565b60408051918252519081900360200190f35b610102600480360360a081101561019457600080fd5b506001600160a01b03813581169160208101358216916040820135169060608101359060800135610549565b61016c61066a565b61016c610670565b610102610676565b610102600480360360208110156101ee57600080fd5b50356001600160a01b03166107fc565b6101026004803603602081101561021457600080fd5b81019060208101813564010000000081111561022f57600080fd5b82018360208201111561024157600080fd5b8035906020019184602083028401116401000000008311171561026357600080fd5b919080806020026020016040519081016040528093929190818152602001838360200280828437600092019190915250929550610901945050505050565b6102a9610ac2565b60408051602080825283518183015283519192839290830191858101910280838360005b838110156102e55781810151838201526020016102cd565b505050509050019250505060405180910390f35b61016c610b25565b6101486004803603602081101561031757600080fd5b5035610b2b565b61016c610b52565b6101026004803603602081101561033c57600080fd5b5035610b58565b6002546001600160a01b0316331461039a576040805162461bcd60e51b815260206004820152601560248201527413db9b1e4819dbdd995c9b9bdc88185b1b1bddd959605a1b604482015290519081900360640190fd5b6005546103e4576040805162461bcd60e51b8152602060048201526013602482015272111a591b89dd081c1c9bdc1bdcd959081e595d606a1b604482015290519081900360640190fd5b426001546005540110610431576040805162461bcd60e51b815260206004820152601060248201526f10d85b89dd0818dbdb5b5a5d081e595d60821b604482015290519081900360640190fd5b600654600181905560408051918252517f023ad9f3cfd45bbf91919354cab651602c11b3d4267df2f095331f1e31c0c4299181900360200190a16000600555565b60008054815b818110156104c357336001600160a01b03166000828154811061049757fe5b6000918252602090912001546001600160a01b031614156104bb57600192506104c3565b600101610478565b5081610511576040805162461bcd60e51b815260206004820152601860248201527713db9b1e481dda1a5d195b1a5cdd195908185b1b1bddd95960421b604482015290519081900360640190fd5b61052c6001600160a01b03871686868663ffffffff610bee16565b505050505050565b6002546001600160a01b031681565b60035481565b60008054815b8181101561059a57336001600160a01b03166000828154811061056e57fe5b6000918252602090912001546001600160a01b03161415610592576001925061059a565b60010161054f565b50816105e8576040805162461bcd60e51b815260206004820152601860248201527713db9b1e481dda1a5d195b1a5cdd195908185b1b1bddd95960421b604482015290519081900360640190fd5b60408051630febdd4960e01b81526001600160a01b03888116600483015287811660248301526044820187905260648201869052915191891691630febdd499160848082019260009290919082900301818387803b15801561064957600080fd5b505af115801561065d573d6000803e3d6000fd5b5050505050505050505050565b610e1081565b60015481565b6002546001600160a01b031633146106cd576040805162461bcd60e51b815260206004820152601560248201527413db9b1e4819dbdd995c9b9bdc88185b1b1bddd959605a1b604482015290519081900360640190fd5b600354610717576040805162461bcd60e51b8152602060048201526013602482015272111a591b89dd081c1c9bdc1bdcd959081e595d606a1b604482015290519081900360640190fd5b426001546003540110610764576040805162461bcd60e51b815260206004820152601060248201526f10d85b89dd0818dbdb5b5a5d081e595d60821b604482015290519081900360640190fd5b6004805461077491600091610e42565b507fcf5f6182ae6cecd595e884fb28fd9bf02ff7d4800a47ad91888a5d42b9b7c0ee6000604051808060200182810382528381815481526020019150805480156107e757602002820191906000526020600020905b81546001600160a01b031681526001909101906020018083116107c9575b50509250505060405180910390a16000600355565b6002546001600160a01b03163314610853576040805162461bcd60e51b815260206004820152601560248201527413db9b1e4819dbdd995c9b9bdc88185b1b1bddd959605a1b604482015290519081900360640190fd5b6001600160a01b0381166108a7576040805162461bcd60e51b815260206004820152601660248201527543616e277420736574207a65726f206164647265737360501b604482015290519081900360640190fd5b600280546001600160a01b0319166001600160a01b03838116919091179182905560408051929091168252517f1cbb37f5a02c38ab13773cb770fae505cce417a4d81560117389e3a9f7e001f2916020908290030190a150565b6002546001600160a01b03163314610958576040805162461bcd60e51b815260206004820152601560248201527413db9b1e4819dbdd995c9b9bdc88185b1b1bddd959605a1b604482015290519081900360640190fd5b805161099c576040805162461bcd60e51b815260206004820152600e60248201526d43616e277420626520656d70747960901b604482015290519081900360640190fd5b600054610a315780516109b6906000906020840190610e92565b507fcf5f6182ae6cecd595e884fb28fd9bf02ff7d4800a47ad91888a5d42b9b7c0ee816040518080602001828103825283818151815260200191508051906020019060200280838360005b83811015610a19578181015183820152602001610a01565b505050509050019250505060405180910390a1610abf565b426003558051610a48906004906020840190610e92565b507f733d9de768ebc70929dcf63858a484af89d827b792edf6c89b1f6b39e6a190ae816040518080602001828103825283818151815260200191508051906020019060200280838360005b83811015610aab578181015183820152602001610a93565b505050509050019250505060405180910390a15b50565b60606000805480602002602001604051908101604052809291908181526020018280548015610b1a57602002820191906000526020600020905b81546001600160a01b03168152600190910190602001808311610afc575b505050505090505b90565b60055481565b60048181548110610b3857fe5b6000918252602090912001546001600160a01b0316905081565b60065481565b6002546001600160a01b03163314610baf576040805162461bcd60e51b815260206004820152601560248201527413db9b1e4819dbdd995c9b9bdc88185b1b1bddd959605a1b604482015290519081900360640190fd5b4260055560068190556040805182815290517fbce69c9602eb3fe8fb05c3a4be218b5f67aec8aafaf6395d2a88cc817ea97b379181900360200190a150565b604080516001600160a01b0385811660248301528416604482015260648082018490528251808303909101815260849091019091526020810180516001600160e01b03166323b872dd60e01b179052610c48908590610c4e565b50505050565b610c60826001600160a01b0316610e06565b610cb1576040805162461bcd60e51b815260206004820152601f60248201527f5361666545524332303a2063616c6c20746f206e6f6e2d636f6e747261637400604482015290519081900360640190fd5b60006060836001600160a01b0316836040518082805190602001908083835b60208310610cef5780518252601f199092019160209182019101610cd0565b6001836020036101000a0380198251168184511680821785525050505050509050019150506000604051808303816000865af19150503d8060008114610d51576040519150601f19603f3d011682016040523d82523d6000602084013e610d56565b606091505b509150915081610dad576040805162461bcd60e51b815260206004820181905260248201527f5361666545524332303a206c6f772d6c6576656c2063616c6c206661696c6564604482015290519081900360640190fd5b805115610c4857808060200190516020811015610dc957600080fd5b5051610c485760405162461bcd60e51b815260040180806020018281038252602a815260200180610f0c602a913960400191505060405180910390fd5b6000813f7fc5d2460186f7233c927e7db2dcc703c0e500b653ca82273b7bfad8045d85a4708115801590610e3a5750808214155b949350505050565b828054828255906000526020600020908101928215610e825760005260206000209182015b82811115610e82578254825591600101919060010190610e67565b50610e8e929150610ee7565b5090565b828054828255906000526020600020908101928215610e82579160200282015b82811115610e8257825182546001600160a01b0319166001600160a01b03909116178255602090920191600190910190610eb2565b610b2291905b80821115610e8e5780546001600160a01b0319168155600101610eed56fe5361666545524332303a204552433230206f7065726174696f6e20646964206e6f742073756363656564a265627a7a723158200cd418f361d01636f5a6e09731a1b26877ac6185c659c336bb2422240647b14764736f6c63430005100032",
  "source": "pragma solidity 0.5.16;\n\nimport \"openzeppelin-solidity/contracts/token/ERC20/IERC20.sol\";\nimport \"openzeppelin-solidity/contracts/token/ERC20/SafeERC20.sol\";\n\nimport \"erc721o/contracts/Interfaces/IERC721O.sol\";\n\nimport \"./Lib/WhitelistedWithGovernanceAndChangableTimelock.sol\";\n\n/// @title Opium.TokenSpender contract holds users ERC20 approvals and allows whitelisted contracts to use tokens\ncontract TokenSpender is WhitelistedWithGovernanceAndChangableTimelock {\n    using SafeERC20 for IERC20;\n\n    // Initial timelock period\n    uint256 public constant WHITELIST_TIMELOCK = 1 hours;\n\n    /// @notice Calls constructors of super-contracts\n    /// @param _governor address Address of governor, who is allowed to adjust whitelist\n    constructor(address _governor) public WhitelistedWithGovernance(WHITELIST_TIMELOCK, _governor) {}\n\n    /// @notice Using this function whitelisted contracts could call ERC20 transfers\n    /// @param token IERC20 Instance of token\n    /// @param from address Address from which tokens are transferred\n    /// @param to address Address of tokens receiver\n    /// @param amount uint256 Amount of tokens to be transferred\n    function claimTokens(IERC20 token, address from, address to, uint256 amount) external onlyWhitelisted {\n        token.safeTransferFrom(from, to, amount);\n    }\n\n    /// @notice Using this function whitelisted contracts could call ERC721O transfers\n    /// @param token IERC721O Instance of token\n    /// @param from address Address from which tokens are transferred\n    /// @param to address Address of tokens receiver\n    /// @param tokenId uint256 Token ID to be transferred\n    /// @param amount uint256 Amount of tokens to be transferred\n    function claimPositions(IERC721O token, address from, address to, uint256 tokenId, uint256 amount) external onlyWhitelisted {\n        token.safeTransferFrom(from, to, tokenId, amount);\n    }\n}\n",
  "sourcePath": "/Users/calvin/Documents/DO/0156_OpiumTests/opium-contracts/contracts/TokenSpender.sol",
  "compiler": {
    "name": "solc",
    "version": "0.5.16+commit.9c3226ce.Emscripten.clang"
  },
  "schemaVersion": "3.4.1",
  "updatedAt": "2021-07-19T14:48:37.172Z",
  "networkType": "ethereum",
  "devdoc": {
    "methods": {
      "claimPositions(address,address,address,uint256,uint256)": {
        "params": {
          "amount": "uint256 Amount of tokens to be transferred",
          "from": "address Address from which tokens are transferred",
          "to": "address Address of tokens receiver",
          "token": "IERC721O Instance of token",
          "tokenId": "uint256 Token ID to be transferred"
        }
      },
      "claimTokens(address,address,address,uint256)": {
        "params": {
          "amount": "uint256 Amount of tokens to be transferred",
          "from": "address Address from which tokens are transferred",
          "to": "address Address of tokens receiver",
          "token": "IERC20 Instance of token"
        }
      },
      "constructor": {
        "params": {
          "_governor": "address Address of governor, who is allowed to adjust whitelist"
        }
      },
      "getWhitelist()": {
        "return": "Array of whitelisted addresses"
      },
      "proposeTimelock(uint256)": {
        "params": {
          "_timelock": "uint256 New timelock value"
        }
      },
      "setGovernor(address)": {
        "params": {
          "_governor": "address Address of new governor"
        }
      }
    },
    "title": "Opium.TokenSpender contract holds users ERC20 approvals and allows whitelisted contracts to use tokens"
  },
  "userdoc": {
    "methods": {
      "claimPositions(address,address,address,uint256,uint256)": {
        "notice": "Using this function whitelisted contracts could call ERC721O transfers"
      },
      "claimTokens(address,address,address,uint256)": {
        "notice": "Using this function whitelisted contracts could call ERC20 transfers"
      },
      "commitTimelock()": {
        "notice": "Calling this function governor could commit previously proposed new timelock if timelock interval of proposal was passed"
      },
      "commitWhitelist()": {
        "notice": "Calling this function governor commits proposed whitelist if timelock interval of proposal was passed"
      },
      "constructor": "Calls constructors of super-contracts",
      "getWhitelist()": {
        "notice": "Getter for whitelisted addresses array"
      },
      "proposeTimelock(uint256)": {
        "notice": "Calling this function governor could propose new timelock"
      },
      "proposeWhitelist(address[])": {
        "notice": "Calling this function governor could propose new whitelist addresses array. Also it allows to initialize first whitelist if it was not initialized yet."
      },
      "setGovernor(address)": {
        "notice": "This function allows governor to transfer governance to a new governor and emits event"
      }
    }
  }
}