{
  "contractName": "TokenMinter",
  "abi": [
    {
      "inputs": [
        {
          "internalType": "string",
          "name": "_baseTokenURI",
          "type": "string"
        },
        {
          "internalType": "address",
          "name": "_registry",
          "type": "address"
        }
      ],
      "payable": false,
      "stateMutability": "nonpayable",
      "type": "constructor"
    },
    {
      "anonymous": false,
      "inputs": [
        {
          "indexed": true,
          "internalType": "address",
          "name": "owner",
          "type": "address"
        },
        {
          "indexed": true,
          "internalType": "address",
          "name": "approved",
          "type": "address"
        },
        {
          "indexed": true,
          "internalType": "uint256",
          "name": "tokenId",
          "type": "uint256"
        }
      ],
      "name": "Approval",
      "type": "event"
    },
    {
      "anonymous": false,
      "inputs": [
        {
          "indexed": true,
          "internalType": "address",
          "name": "owner",
          "type": "address"
        },
        {
          "indexed": true,
          "internalType": "address",
          "name": "operator",
          "type": "address"
        },
        {
          "indexed": false,
          "internalType": "bool",
          "name": "approved",
          "type": "bool"
        }
      ],
      "name": "ApprovalForAll",
      "type": "event"
    },
    {
      "anonymous": false,
      "inputs": [
        {
          "indexed": true,
          "internalType": "address",
          "name": "from",
          "type": "address"
        },
        {
          "indexed": true,
          "internalType": "address",
          "name": "to",
          "type": "address"
        },
        {
          "indexed": false,
          "internalType": "uint256[]",
          "name": "tokenTypes",
          "type": "uint256[]"
        },
        {
          "indexed": false,
          "internalType": "uint256[]",
          "name": "amounts",
          "type": "uint256[]"
        }
      ],
      "name": "BatchTransfer",
      "type": "event"
    },
    {
      "anonymous": false,
      "inputs": [
        {
          "indexed": false,
          "internalType": "uint256",
          "name": "portfolioId",
          "type": "uint256"
        },
        {
          "indexed": false,
          "internalType": "uint256[]",
          "name": "tokenIds",
          "type": "uint256[]"
        },
        {
          "indexed": false,
          "internalType": "uint256[]",
          "name": "tokenRatio",
          "type": "uint256[]"
        }
      ],
      "name": "Composition",
      "type": "event"
    },
    {
      "anonymous": false,
      "inputs": [
        {
          "indexed": false,
          "internalType": "address",
          "name": "registry",
          "type": "address"
        }
      ],
      "name": "RegistrySet",
      "type": "event"
    },
    {
      "anonymous": false,
      "inputs": [
        {
          "indexed": true,
          "internalType": "address",
          "name": "from",
          "type": "address"
        },
        {
          "indexed": true,
          "internalType": "address",
          "name": "to",
          "type": "address"
        },
        {
          "indexed": true,
          "internalType": "uint256",
          "name": "tokenId",
          "type": "uint256"
        }
      ],
      "name": "Transfer",
      "type": "event"
    },
    {
      "anonymous": false,
      "inputs": [
        {
          "indexed": true,
          "internalType": "address",
          "name": "from",
          "type": "address"
        },
        {
          "indexed": true,
          "internalType": "address",
          "name": "to",
          "type": "address"
        },
        {
          "indexed": true,
          "internalType": "uint256",
          "name": "tokenId",
          "type": "uint256"
        },
        {
          "indexed": false,
          "internalType": "uint256",
          "name": "quantity",
          "type": "uint256"
        }
      ],
      "name": "TransferWithQuantity",
      "type": "event"
    },
    {
      "constant": true,
      "inputs": [],
      "name": "DOMAIN_SEPARATOR",
      "outputs": [
        {
          "internalType": "bytes32",
          "name": "",
          "type": "bytes32"
        }
      ],
      "payable": false,
      "stateMutability": "view",
      "type": "function"
    },
    {
      "constant": true,
      "inputs": [],
      "name": "PERMIT_TYPEHASH",
      "outputs": [
        {
          "internalType": "bytes32",
          "name": "",
          "type": "bytes32"
        }
      ],
      "payable": false,
      "stateMutability": "view",
      "type": "function"
    },
    {
      "constant": false,
      "inputs": [
        {
          "internalType": "address",
          "name": "_to",
          "type": "address"
        },
        {
          "internalType": "uint256",
          "name": "_tokenId",
          "type": "uint256"
        }
      ],
      "name": "approve",
      "outputs": [],
      "payable": false,
      "stateMutability": "nonpayable",
      "type": "function"
    },
    {
      "constant": true,
      "inputs": [
        {
          "internalType": "address",
          "name": "_address",
          "type": "address"
        },
        {
          "internalType": "uint256",
          "name": "_tokenId",
          "type": "uint256"
        }
      ],
      "name": "balanceOf",
      "outputs": [
        {
          "internalType": "uint256",
          "name": "",
          "type": "uint256"
        }
      ],
      "payable": false,
      "stateMutability": "view",
      "type": "function"
    },
    {
      "constant": true,
      "inputs": [
        {
          "internalType": "address",
          "name": "_owner",
          "type": "address"
        }
      ],
      "name": "balanceOf",
      "outputs": [
        {
          "internalType": "uint256",
          "name": "balance",
          "type": "uint256"
        }
      ],
      "payable": false,
      "stateMutability": "view",
      "type": "function"
    },
    {
      "constant": false,
      "inputs": [
        {
          "internalType": "address",
          "name": "_from",
          "type": "address"
        },
        {
          "internalType": "address",
          "name": "_to",
          "type": "address"
        },
        {
          "internalType": "uint256[]",
          "name": "_tokenIds",
          "type": "uint256[]"
        },
        {
          "internalType": "uint256[]",
          "name": "_amounts",
          "type": "uint256[]"
        }
      ],
      "name": "batchTransferFrom",
      "outputs": [],
      "payable": false,
      "stateMutability": "nonpayable",
      "type": "function"
    },
    {
      "constant": false,
      "inputs": [
        {
          "internalType": "uint256[]",
          "name": "_tokenIds",
          "type": "uint256[]"
        },
        {
          "internalType": "uint256[]",
          "name": "_tokenRatio",
          "type": "uint256[]"
        },
        {
          "internalType": "uint256",
          "name": "_quantity",
          "type": "uint256"
        }
      ],
      "name": "compose",
      "outputs": [],
      "payable": false,
      "stateMutability": "nonpayable",
      "type": "function"
    },
    {
      "constant": false,
      "inputs": [
        {
          "internalType": "uint256",
          "name": "_portfolioId",
          "type": "uint256"
        },
        {
          "internalType": "uint256[]",
          "name": "_tokenIds",
          "type": "uint256[]"
        },
        {
          "internalType": "uint256[]",
          "name": "_tokenRatio",
          "type": "uint256[]"
        },
        {
          "internalType": "uint256",
          "name": "_quantity",
          "type": "uint256"
        }
      ],
      "name": "decompose",
      "outputs": [],
      "payable": false,
      "stateMutability": "nonpayable",
      "type": "function"
    },
    {
      "constant": true,
      "inputs": [
        {
          "internalType": "uint256",
          "name": "_tokenId",
          "type": "uint256"
        }
      ],
      "name": "exists",
      "outputs": [
        {
          "internalType": "bool",
          "name": "",
          "type": "bool"
        }
      ],
      "payable": false,
      "stateMutability": "view",
      "type": "function"
    },
    {
      "constant": true,
      "inputs": [
        {
          "internalType": "uint256",
          "name": "_tokenId",
          "type": "uint256"
        }
      ],
      "name": "getApproved",
      "outputs": [
        {
          "internalType": "address",
          "name": "",
          "type": "address"
        }
      ],
      "payable": false,
      "stateMutability": "view",
      "type": "function"
    },
    {
      "constant": true,
      "inputs": [
        {
          "internalType": "uint256",
          "name": "_tokenId",
          "type": "uint256"
        },
        {
          "internalType": "address",
          "name": "_tokenOwner",
          "type": "address"
        }
      ],
      "name": "getApproved",
      "outputs": [
        {
          "internalType": "address",
          "name": "",
          "type": "address"
        }
      ],
      "payable": false,
      "stateMutability": "view",
      "type": "function"
    },
    {
      "constant": true,
      "inputs": [],
      "name": "getRegistry",
      "outputs": [
        {
          "internalType": "address",
          "name": "",
          "type": "address"
        }
      ],
      "payable": false,
      "stateMutability": "view",
      "type": "function"
    },
    {
      "constant": true,
      "inputs": [],
      "name": "implementsERC721",
      "outputs": [
        {
          "internalType": "bool",
          "name": "",
          "type": "bool"
        }
      ],
      "payable": false,
      "stateMutability": "pure",
      "type": "function"
    },
    {
      "constant": true,
      "inputs": [],
      "name": "implementsERC721O",
      "outputs": [
        {
          "internalType": "bool",
          "name": "",
          "type": "bool"
        }
      ],
      "payable": false,
      "stateMutability": "pure",
      "type": "function"
    },
    {
      "constant": true,
      "inputs": [
        {
          "internalType": "address",
          "name": "_owner",
          "type": "address"
        },
        {
          "internalType": "address",
          "name": "_operator",
          "type": "address"
        }
      ],
      "name": "isApprovedForAll",
      "outputs": [
        {
          "internalType": "bool",
          "name": "isOperator",
          "type": "bool"
        }
      ],
      "payable": false,
      "stateMutability": "view",
      "type": "function"
    },
    {
      "constant": true,
      "inputs": [
        {
          "internalType": "address",
          "name": "",
          "type": "address"
        }
      ],
      "name": "nonces",
      "outputs": [
        {
          "internalType": "uint256",
          "name": "",
          "type": "uint256"
        }
      ],
      "payable": false,
      "stateMutability": "view",
      "type": "function"
    },
    {
      "constant": true,
      "inputs": [
        {
          "internalType": "uint256",
          "name": "_tokenId",
          "type": "uint256"
        }
      ],
      "name": "ownerOf",
      "outputs": [
        {
          "internalType": "address",
          "name": "",
          "type": "address"
        }
      ],
      "payable": false,
      "stateMutability": "view",
      "type": "function"
    },
    {
      "constant": false,
      "inputs": [
        {
          "internalType": "address",
          "name": "_holder",
          "type": "address"
        },
        {
          "internalType": "address",
          "name": "_spender",
          "type": "address"
        },
        {
          "internalType": "uint256",
          "name": "_nonce",
          "type": "uint256"
        },
        {
          "internalType": "uint256",
          "name": "_expiry",
          "type": "uint256"
        },
        {
          "internalType": "bool",
          "name": "_allowed",
          "type": "bool"
        },
        {
          "internalType": "bytes",
          "name": "_signature",
          "type": "bytes"
        }
      ],
      "name": "permit",
      "outputs": [],
      "payable": false,
      "stateMutability": "nonpayable",
      "type": "function"
    },
    {
      "constant": false,
      "inputs": [
        {
          "internalType": "uint256",
          "name": "_portfolioId",
          "type": "uint256"
        },
        {
          "internalType": "uint256[]",
          "name": "_initialTokenIds",
          "type": "uint256[]"
        },
        {
          "internalType": "uint256[]",
          "name": "_initialTokenRatio",
          "type": "uint256[]"
        },
        {
          "internalType": "uint256[]",
          "name": "_finalTokenIds",
          "type": "uint256[]"
        },
        {
          "internalType": "uint256[]",
          "name": "_finalTokenRatio",
          "type": "uint256[]"
        },
        {
          "internalType": "uint256",
          "name": "_quantity",
          "type": "uint256"
        }
      ],
      "name": "recompose",
      "outputs": [],
      "payable": false,
      "stateMutability": "nonpayable",
      "type": "function"
    },
    {
      "constant": false,
      "inputs": [
        {
          "internalType": "address",
          "name": "_from",
          "type": "address"
        },
        {
          "internalType": "address",
          "name": "_to",
          "type": "address"
        },
        {
          "internalType": "uint256[]",
          "name": "_tokenIds",
          "type": "uint256[]"
        },
        {
          "internalType": "uint256[]",
          "name": "_amounts",
          "type": "uint256[]"
        },
        {
          "internalType": "bytes",
          "name": "_data",
          "type": "bytes"
        }
      ],
      "name": "safeBatchTransferFrom",
      "outputs": [],
      "payable": false,
      "stateMutability": "nonpayable",
      "type": "function"
    },
    {
      "constant": false,
      "inputs": [
        {
          "internalType": "address",
          "name": "_from",
          "type": "address"
        },
        {
          "internalType": "address",
          "name": "_to",
          "type": "address"
        },
        {
          "internalType": "uint256[]",
          "name": "_tokenIds",
          "type": "uint256[]"
        },
        {
          "internalType": "uint256[]",
          "name": "_amounts",
          "type": "uint256[]"
        }
      ],
      "name": "safeBatchTransferFrom",
      "outputs": [],
      "payable": false,
      "stateMutability": "nonpayable",
      "type": "function"
    },
    {
      "constant": false,
      "inputs": [
        {
          "internalType": "address",
          "name": "_from",
          "type": "address"
        },
        {
          "internalType": "address",
          "name": "_to",
          "type": "address"
        },
        {
          "internalType": "uint256",
          "name": "_tokenId",
          "type": "uint256"
        },
        {
          "internalType": "uint256",
          "name": "_amount",
          "type": "uint256"
        }
      ],
      "name": "safeTransferFrom",
      "outputs": [],
      "payable": false,
      "stateMutability": "nonpayable",
      "type": "function"
    },
    {
      "constant": false,
      "inputs": [
        {
          "internalType": "address",
          "name": "_from",
          "type": "address"
        },
        {
          "internalType": "address",
          "name": "_to",
          "type": "address"
        },
        {
          "internalType": "uint256",
          "name": "_tokenId",
          "type": "uint256"
        }
      ],
      "name": "safeTransferFrom",
      "outputs": [],
      "payable": false,
      "stateMutability": "nonpayable",
      "type": "function"
    },
    {
      "constant": false,
      "inputs": [
        {
          "internalType": "address",
          "name": "_from",
          "type": "address"
        },
        {
          "internalType": "address",
          "name": "_to",
          "type": "address"
        },
        {
          "internalType": "uint256",
          "name": "_tokenId",
          "type": "uint256"
        },
        {
          "internalType": "bytes",
          "name": "_data",
          "type": "bytes"
        }
      ],
      "name": "safeTransferFrom",
      "outputs": [],
      "payable": false,
      "stateMutability": "nonpayable",
      "type": "function"
    },
    {
      "constant": false,
      "inputs": [
        {
          "internalType": "address",
          "name": "_from",
          "type": "address"
        },
        {
          "internalType": "address",
          "name": "_to",
          "type": "address"
        },
        {
          "internalType": "uint256",
          "name": "_tokenId",
          "type": "uint256"
        },
        {
          "internalType": "uint256",
          "name": "_amount",
          "type": "uint256"
        },
        {
          "internalType": "bytes",
          "name": "_data",
          "type": "bytes"
        }
      ],
      "name": "safeTransferFrom",
      "outputs": [],
      "payable": false,
      "stateMutability": "nonpayable",
      "type": "function"
    },
    {
      "constant": false,
      "inputs": [
        {
          "internalType": "address",
          "name": "_operator",
          "type": "address"
        },
        {
          "internalType": "bool",
          "name": "_approved",
          "type": "bool"
        }
      ],
      "name": "setApprovalForAll",
      "outputs": [],
      "payable": false,
      "stateMutability": "nonpayable",
      "type": "function"
    },
    {
      "constant": true,
      "inputs": [
        {
          "internalType": "bytes4",
          "name": "interfaceId",
          "type": "bytes4"
        }
      ],
      "name": "supportsInterface",
      "outputs": [
        {
          "internalType": "bool",
          "name": "",
          "type": "bool"
        }
      ],
      "payable": false,
      "stateMutability": "view",
      "type": "function"
    },
    {
      "constant": true,
      "inputs": [
        {
          "internalType": "uint256",
          "name": "_index",
          "type": "uint256"
        }
      ],
      "name": "tokenByIndex",
      "outputs": [
        {
          "internalType": "uint256",
          "name": "",
          "type": "uint256"
        }
      ],
      "payable": false,
      "stateMutability": "view",
      "type": "function"
    },
    {
      "constant": true,
      "inputs": [
        {
          "internalType": "address",
          "name": "_owner",
          "type": "address"
        },
        {
          "internalType": "uint256",
          "name": "_index",
          "type": "uint256"
        }
      ],
      "name": "tokenOfOwnerByIndex",
      "outputs": [
        {
          "internalType": "uint256",
          "name": "_tokenId",
          "type": "uint256"
        }
      ],
      "payable": false,
      "stateMutability": "view",
      "type": "function"
    },
    {
      "constant": true,
      "inputs": [
        {
          "internalType": "uint256",
          "name": "_tokenId",
          "type": "uint256"
        }
      ],
      "name": "tokenURI",
      "outputs": [
        {
          "internalType": "string",
          "name": "tokenUri",
          "type": "string"
        }
      ],
      "payable": false,
      "stateMutability": "view",
      "type": "function"
    },
    {
      "constant": true,
      "inputs": [
        {
          "internalType": "address",
          "name": "_owner",
          "type": "address"
        }
      ],
      "name": "tokensOwned",
      "outputs": [
        {
          "internalType": "uint256[]",
          "name": "indexes",
          "type": "uint256[]"
        },
        {
          "internalType": "uint256[]",
          "name": "balances",
          "type": "uint256[]"
        }
      ],
      "payable": false,
      "stateMutability": "view",
      "type": "function"
    },
    {
      "constant": true,
      "inputs": [],
      "name": "totalSupply",
      "outputs": [
        {
          "internalType": "uint256",
          "name": "",
          "type": "uint256"
        }
      ],
      "payable": false,
      "stateMutability": "view",
      "type": "function"
    },
    {
      "constant": false,
      "inputs": [
        {
          "internalType": "address",
          "name": "_to",
          "type": "address"
        },
        {
          "internalType": "uint256",
          "name": "_tokenId",
          "type": "uint256"
        },
        {
          "internalType": "uint256",
          "name": "_amount",
          "type": "uint256"
        }
      ],
      "name": "transfer",
      "outputs": [],
      "payable": false,
      "stateMutability": "nonpayable",
      "type": "function"
    },
    {
      "constant": false,
      "inputs": [
        {
          "internalType": "address",
          "name": "_from",
          "type": "address"
        },
        {
          "internalType": "address",
          "name": "_to",
          "type": "address"
        },
        {
          "internalType": "uint256",
          "name": "_tokenId",
          "type": "uint256"
        }
      ],
      "name": "transferFrom",
      "outputs": [],
      "payable": false,
      "stateMutability": "nonpayable",
      "type": "function"
    },
    {
      "constant": false,
      "inputs": [
        {
          "internalType": "address",
          "name": "_from",
          "type": "address"
        },
        {
          "internalType": "address",
          "name": "_to",
          "type": "address"
        },
        {
          "internalType": "uint256",
          "name": "_tokenId",
          "type": "uint256"
        },
        {
          "internalType": "uint256",
          "name": "_amount",
          "type": "uint256"
        }
      ],
      "name": "transferFrom",
      "outputs": [],
      "payable": false,
      "stateMutability": "nonpayable",
      "type": "function"
    },
    {
      "constant": false,
      "inputs": [
        {
          "internalType": "address",
          "name": "_buyer",
          "type": "address"
        },
        {
          "internalType": "address",
          "name": "_seller",
          "type": "address"
        },
        {
          "internalType": "bytes32",
          "name": "_derivativeHash",
          "type": "bytes32"
        },
        {
          "internalType": "uint256",
          "name": "_quantity",
          "type": "uint256"
        }
      ],
      "name": "mint",
      "outputs": [],
      "payable": false,
      "stateMutability": "nonpayable",
      "type": "function"
    },
    {
      "constant": false,
      "inputs": [
        {
          "internalType": "address",
          "name": "_buyer",
          "type": "address"
        },
        {
          "internalType": "bytes32",
          "name": "_derivativeHash",
          "type": "bytes32"
        },
        {
          "internalType": "uint256",
          "name": "_quantity",
          "type": "uint256"
        }
      ],
      "name": "mint",
      "outputs": [],
      "payable": false,
      "stateMutability": "nonpayable",
      "type": "function"
    },
    {
      "constant": false,
      "inputs": [
        {
          "internalType": "address",
          "name": "_tokenOwner",
          "type": "address"
        },
        {
          "internalType": "uint256",
          "name": "_tokenId",
          "type": "uint256"
        },
        {
          "internalType": "uint256",
          "name": "_quantity",
          "type": "uint256"
        }
      ],
      "name": "burn",
      "outputs": [],
      "payable": false,
      "stateMutability": "nonpayable",
      "type": "function"
    },
    {
      "constant": true,
      "inputs": [],
      "name": "name",
      "outputs": [
        {
          "internalType": "string",
          "name": "",
          "type": "string"
        }
      ],
      "payable": false,
      "stateMutability": "view",
      "type": "function"
    },
    {
      "constant": true,
      "inputs": [],
      "name": "symbol",
      "outputs": [
        {
          "internalType": "string",
          "name": "",
          "type": "string"
        }
      ],
      "payable": false,
      "stateMutability": "view",
      "type": "function"
    },
    {
      "constant": true,
      "inputs": [
        {
          "internalType": "address",
          "name": "_spender",
          "type": "address"
        },
        {
          "internalType": "address",
          "name": "_owner",
          "type": "address"
        },
        {
          "internalType": "uint256",
          "name": "_tokenId",
          "type": "uint256"
        }
      ],
      "name": "isApprovedOrOwner",
      "outputs": [
        {
          "internalType": "bool",
          "name": "",
          "type": "bool"
        }
      ],
      "payable": false,
      "stateMutability": "view",
      "type": "function"
    },
    {
      "constant": true,
      "inputs": [
        {
          "internalType": "address",
          "name": "_spender",
          "type": "address"
        }
      ],
      "name": "isOpiumSpender",
      "outputs": [
        {
          "internalType": "bool",
          "name": "",
          "type": "bool"
        }
      ],
      "payable": false,
      "stateMutability": "view",
      "type": "function"
    }
  ],
  "bytecode": "0x60806040523480156200001157600080fd5b5060405162004a6338038062004a63833981810160405260408110156200003757600080fd5b81019080805160405193929190846401000000008211156200005857600080fd5b9083019060208201858111156200006e57600080fd5b82516401000000008111828201881017156200008957600080fd5b82525081516020918201929091019080838360005b83811015620000b85781810151838201526020016200009e565b50505050905090810190601f168015620000e65780820380516001836020036101000a031916815260200191505b50604052602001519150819050826200010f6301ffc9a760e01b6001600160e01b03620002cf16565b6200012a6302468acf60e31b6001600160e01b03620002cf16565b604051806042620049d1823960408051918290036042018220828201825260078352664552433732316f60c81b6020938401528151808301835260018152603160f81b908401528151808401919091527fe2e27f86dca355ac92ad62b9c84ff21cbd0c850d0a1d93695bcf66a63a10a2a1818301527fc89efdaa54c0f20c7adf612882df0950f5a951637e0307cdcb4c672f298b8bc66060820152306080808301919091528251808303909101815260a0909101918290528051920191909120600655905080605062004a13823960405190819003605001902060075550600160095580516200022290600a90602084019062000354565b506200023e6380ac58cd60e01b6001600160e01b03620002cf16565b6200025963780e9d6360e01b6001600160e01b03620002cf16565b62000274635b5e139f60e01b6001600160e01b03620002cf16565b50600b80546001600160a01b0383166001600160a01b0319909116811790915560408051918252517f27fe5f0c1c3b1ed427cc63d0f05759ffdecf9aec9e18d31ef366fc8a6cb5dc3b9181900360200190a1505050620003f9565b6001600160e01b031980821614156200032f576040805162461bcd60e51b815260206004820152601c60248201527f4552433136353a20696e76616c696420696e7465726661636520696400000000604482015290519081900360640190fd5b6001600160e01b0319166000908152602081905260409020805460ff19166001179055565b828054600181600116156101000203166002900490600052602060002090601f016020900481019282601f106200039757805160ff1916838001178555620003c7565b82800160010185558215620003c7579182015b82811115620003c7578251825591602001919060010190620003aa565b50620003d5929150620003d9565b5090565b620003f691905b80821115620003d55760008155600101620003e0565b90565b6145c880620004096000396000f3fe608060405234801561001057600080fd5b506004361061025d5760003560e01c80635ab1bd5311610146578063a22cb465116100c3578063dd10f33811610087578063dd10f3381461102d578063e985e9c514611059578063f242432a14611087578063f5298aca14611150578063fba0ee6414611182578063fe99049a146112be5761025d565b8063a22cb46514610dc0578063b88d4fde14610dee578063c3e6d64014610eb2578063c87b56dd14610fde578063c89dcfce14610ffb5761025d565b80638049f3de1161010a5780638049f3de14610bbb5780638348500d14610c5757806387bffc4e1461065d57806395d89b4114610d7c578063a0ecdb3f14610d845761025d565b80635ab1bd5314610b315780636352211e1461035857806370a0823114610b3957806372982cd214610b5f5780637ecebe0014610b955761025d565b806317fad7fc116101df5780632f745c59116101a35780632f745c5914610a8557806330adf81f14610ab15780633644e51514610ab957806342842e0e14610ac15780634f558e7914610af75780634f6ccce714610b145761025d565b806317fad7fc1461068b57806318160ddd146107c757806321cda790146107cf57806323b872dd1461088e5780632eb2c2d6146108c45761025d565b8063095ea7b311610226578063095ea7b3146103c55780630b2d3bf1146103f15780630febdd49146106215780631051db341461065d57806312042d32146106655761025d565b8062fdd58e1461026257806301ffc9a7146102a057806306fdde03146102db578063081812fc14610358578063095bcdb614610391575b600080fd5b61028e6004803603604081101561027857600080fd5b506001600160a01b0381351690602001356112fa565b60408051918252519081900360200190f35b6102c7600480360360208110156102b657600080fd5b50356001600160e01b03191661134c565b604080519115158252519081900360200190f35b6102e361136f565b6040805160208082528351818301528351919283929083019185019080838360005b8381101561031d578181015183820152602001610305565b50505050905090810190601f16801561034a5780820380516001836020036101000a031916815260200191505b509250505060405180910390f35b6103756004803603602081101561036e57600080fd5b50356113a6565b604080516001600160a01b039092168252519081900360200190f35b6103c3600480360360608110156103a757600080fd5b506001600160a01b0381351690602081013590604001356113c5565b005b6103c3600480360360408110156103db57600080fd5b506001600160a01b0381351690602001356113d6565b6103c3600480360360c081101561040757600080fd5b81359190810190604081016020820135600160201b81111561042857600080fd5b82018360208201111561043a57600080fd5b803590602001918460208302840111600160201b8311171561045b57600080fd5b9190808060200260200160405190810160405280939291908181526020018383602002808284376000920191909152509295949360208101935035915050600160201b8111156104aa57600080fd5b8201836020820111156104bc57600080fd5b803590602001918460208302840111600160201b831117156104dd57600080fd5b9190808060200260200160405190810160405280939291908181526020018383602002808284376000920191909152509295949360208101935035915050600160201b81111561052c57600080fd5b82018360208201111561053e57600080fd5b803590602001918460208302840111600160201b8311171561055f57600080fd5b9190808060200260200160405190810160405280939291908181526020018383602002808284376000920191909152509295949360208101935035915050600160201b8111156105ae57600080fd5b8201836020820111156105c057600080fd5b803590602001918460208302840111600160201b831117156105e157600080fd5b9190808060200260200160405190810160405280939291908181526020018383602002808284376000920191909152509295505091359250611498915050565b6103c36004803603608081101561063757600080fd5b506001600160a01b03813581169160208101359091169060408101359060600135611825565b6102c7611847565b6102c76004803603602081101561067b57600080fd5b50356001600160a01b031661184c565b6103c3600480360360808110156106a157600080fd5b6001600160a01b038235811692602081013590911691810190606081016040820135600160201b8111156106d457600080fd5b8201836020820111156106e657600080fd5b803590602001918460208302840111600160201b8311171561070757600080fd5b9190808060200260200160405190810160405280939291908181526020018383602002808284376000920191909152509295949360208101935035915050600160201b81111561075657600080fd5b82018360208201111561076857600080fd5b803590602001918460208302840111600160201b8311171561078957600080fd5b9190808060200260200160405190810160405280939291908181526020018383602002808284376000920191909152509295506118d2945050505050565b61028e6118de565b6107f5600480360360208110156107e557600080fd5b50356001600160a01b03166118e4565b604051808060200180602001838103835285818151815260200191508051906020019060200280838360005b83811015610839578181015183820152602001610821565b50505050905001838103825284818151815260200191508051906020019060200280838360005b83811015610878578181015183820152602001610860565b5050505090500194505050505060405180910390f35b6103c3600480360360608110156108a457600080fd5b506001600160a01b03813581169160208101359091169060400135611aac565b6103c3600480360360a08110156108da57600080fd5b6001600160a01b038235811692602081013590911691810190606081016040820135600160201b81111561090d57600080fd5b82018360208201111561091f57600080fd5b803590602001918460208302840111600160201b8311171561094057600080fd5b9190808060200260200160405190810160405280939291908181526020018383602002808284376000920191909152509295949360208101935035915050600160201b81111561098f57600080fd5b8201836020820111156109a157600080fd5b803590602001918460208302840111600160201b831117156109c257600080fd5b9190808060200260200160405190810160405280939291908181526020018383602002808284376000920191909152509295949360208101935035915050600160201b811115610a1157600080fd5b820183602082011115610a2357600080fd5b803590602001918460018302840111600160201b83111715610a4457600080fd5b91908080601f016020809104026020016040519081016040528093929190818152602001838380828437600092019190915250929550611ab9945050505050565b61028e60048036036040811015610a9b57600080fd5b506001600160a01b038135169060200135611cfc565b61028e611d36565b61028e611d3c565b6103c360048036036060811015610ad757600080fd5b506001600160a01b03813581169160208101359091169060400135611d42565b6102c760048036036020811015610b0d57600080fd5b5035611d5d565b61028e60048036036020811015610b2a57600080fd5b5035611d71565b610375611da5565b61028e60048036036020811015610b4f57600080fd5b50356001600160a01b0316611db4565b6102c760048036036060811015610b7557600080fd5b506001600160a01b03813581169160208101359091169060400135611dca565b61028e60048036036020811015610bab57600080fd5b50356001600160a01b0316611e2d565b6103c3600480360360c0811015610bd157600080fd5b6001600160a01b03823581169260208101359091169160408201359160608101359160808201351515919081019060c0810160a0820135600160201b811115610c1957600080fd5b820183602082011115610c2b57600080fd5b803590602001918460018302840111600160201b83111715610c4c57600080fd5b509092509050611e3f565b6103c360048036036060811015610c6d57600080fd5b810190602081018135600160201b811115610c8757600080fd5b820183602082011115610c9957600080fd5b803590602001918460208302840111600160201b83111715610cba57600080fd5b9190808060200260200160405190810160405280939291908181526020018383602002808284376000920191909152509295949360208101935035915050600160201b811115610d0957600080fd5b820183602082011115610d1b57600080fd5b803590602001918460208302840111600160201b83111715610d3c57600080fd5b9190808060200260200160405190810160405280939291908181526020018383602002808284376000920191909152509295505091359250612201915050565b6102e3612404565b6103c360048036036080811015610d9a57600080fd5b506001600160a01b03813581169160208101359091169060408101359060600135612421565b6103c360048036036040811015610dd657600080fd5b506001600160a01b0381351690602001351515612570565b6103c360048036036080811015610e0457600080fd5b6001600160a01b03823581169260208101359091169160408201359190810190608081016060820135600160201b811115610e3e57600080fd5b820183602082011115610e5057600080fd5b803590602001918460018302840111600160201b83111715610e7157600080fd5b91908080601f0160208091040260200160405190810160405280939291908181526020018383808284376000920191909152509295506125de945050505050565b6103c360048036036080811015610ec857600080fd5b81359190810190604081016020820135600160201b811115610ee957600080fd5b820183602082011115610efb57600080fd5b803590602001918460208302840111600160201b83111715610f1c57600080fd5b9190808060200260200160405190810160405280939291908181526020018383602002808284376000920191909152509295949360208101935035915050600160201b811115610f6b57600080fd5b820183602082011115610f7d57600080fd5b803590602001918460208302840111600160201b83111715610f9e57600080fd5b919080806020026020016040519081016040528093929190818152602001838360200280828437600092019190915250929550509135925061269e915050565b6102e360048036036020811015610ff457600080fd5b50356128d3565b6103c36004803603606081101561101157600080fd5b506001600160a01b038135169060208101359060400135612a04565b6103756004803603604081101561104357600080fd5b50803590602001356001600160a01b0316612b15565b6102c76004803603604081101561106f57600080fd5b506001600160a01b0381358116916020013516612b3e565b6103c3600480360360a081101561109d57600080fd5b6001600160a01b03823581169260208101359091169160408201359160608101359181019060a081016080820135600160201b8111156110dc57600080fd5b8201836020820111156110ee57600080fd5b803590602001918460018302840111600160201b8311171561110f57600080fd5b91908080601f016020809104026020016040519081016040528093929190818152602001838380828437600092019190915250929550612b6c945050505050565b6103c36004803603606081101561116657600080fd5b506001600160a01b038135169060208101359060400135612bcb565b6103c36004803603608081101561119857600080fd5b6001600160a01b038235811692602081013590911691810190606081016040820135600160201b8111156111cb57600080fd5b8201836020820111156111dd57600080fd5b803590602001918460208302840111600160201b831117156111fe57600080fd5b9190808060200260200160405190810160405280939291908181526020018383602002808284376000920191909152509295949360208101935035915050600160201b81111561124d57600080fd5b82018360208201111561125f57600080fd5b803590602001918460208302840111600160201b8311171561128057600080fd5b919080806020026020016040519081016040528093929190818152602001838360200280828437600092019190915250929550612cdc945050505050565b6103c3600480360360808110156112d457600080fd5b506001600160a01b03813581169160208101359091169060408101359060600135612cf8565b600080600061130884612d04565b6001600160a01b03871660009081526002602090815260408083208584529091529020549193509150611341908263ffffffff612d1516565b925050505b92915050565b6001600160e01b0319811660009081526020819052604090205460ff165b919050565b60408051808201909152601c81527f4f7069756d204e6574776f726b20506f736974696f6e20546f6b656e00000000602082015290565b60006113b182611d5d565b156113bd57503061136a565b506000919050565b6113d133848484612d2f565b505050565b6001600160a01b038216331415611434576040805162461bcd60e51b815260206004820152601960248201527f43616e277420617070726f766520746f20796f757273656c6600000000000000604482015290519081900360640190fd5b600081815260046020908152604080832033808552925280832080546001600160a01b0319166001600160a01b038716908117909155905184939192917f8c5be1e5ebec7d5bd14f71427d1e84f3dd0314c0f7b2291e5b200ac8c7c3b92591a45050565b83518551146114d85760405162461bcd60e51b815260040180806020018281038252603e81526020018061436f603e913960400191505060405180910390fd5b81518351146115185760405162461bcd60e51b815260040180806020018281038252603c8152602001806144cd603c913960400191505060405180910390fd5b6000811161155b576040805162461bcd60e51b815260206004820152601b6024820152600080516020614329833981519152604482015290519081900360640190fd5b600085511161159f576040805162461bcd60e51b815260206004820152601b6024820152600080516020614329833981519152604482015290519081900360640190fd5b60008351116115e3576040805162461bcd60e51b815260206004820152601b6024820152600080516020614329833981519152604482015290519081900360640190fd5b6115ec85612e9b565b6116275760405162461bcd60e51b81526004018080602001828103825260218152602001806145296021913960400191505060405180910390fd5b61163083612e9b565b61166b5760405162461bcd60e51b81526004018080602001828103825260218152602001806145296021913960400191505060405180910390fd5b6000858560405160200180838051906020019060200280838360005b8381101561169f578181015183820152602001611687565b50505050905001828051906020019060200280838360005b838110156116cf5781810151838201526020016116b7565b50505050905001925050506040516020818303038152906040528051906020012060001c9050868114611749576040805162461bcd60e51b815260206004820152601f60248201527f544f4b454e5f4d494e5445523a57524f4e475f504f5254464f4c494f5f494400604482015290519081900360640190fd5b611754338884612f00565b6117618686868686612fb8565b61176e8686868686613025565b61177b8686868686613092565b6000848460405160200180838051906020019060200280838360005b838110156117af578181015183820152602001611797565b50505050905001828051906020019060200280838360005b838110156117df5781810151838201526020016117c7565b50505050905001925050506040516020818303038152906040528051906020012060001c9050611810818686613212565b61181b813385613300565b5050505050505050565b6118418484848460405180602001604052806000815250612b6c565b50505050565b600190565b600b546040805163beb5bd8160e01b815290516000926001600160a01b03169163beb5bd81916004808301926020929190829003018186803b15801561189157600080fd5b505afa1580156118a5573d6000803e3d6000fd5b505050506040513d60208110156118bb57600080fd5b50516001600160a01b038381169116149050919050565b611841848484846133ba565b60015490565b60608060006118f16118de565b905060608160405190808252806020026020018201604052801561191f578160200160208202803883390190505b50905060608260405190808252806020026020018201604052801561194e578160200160208202803883390190505b5090506000805b848110156119d55760006001828154811061196c57fe5b9060005260206000200154905060006119858a836112fa565b11156119cc5761199589826112fa565b8484815181106119a157fe5b602002602001018181525050808584815181106119ba57fe5b60209081029190910101526001909201915b50600101611955565b50606081604051908082528060200260200182016040528015611a02578160200160208202803883390190505b509050606082604051908082528060200260200182016040528015611a31578160200160208202803883390190505b50905060005b83811015611a9e57848181518110611a4b57fe5b6020026020010151838281518110611a5f57fe5b602002602001018181525050858181518110611a7757fe5b6020026020010151828281518110611a8b57fe5b6020908102919091010152600101611a37565b509650945050505050915091565b6113d18383836001612d2f565b6009805460010190819055611ad0868686866133ba565b611ae2856001600160a01b03166137f3565b15611c9e576000856001600160a01b031663d0e17c0b33898888886040518663ffffffff1660e01b815260040180866001600160a01b03166001600160a01b03168152602001856001600160a01b03166001600160a01b03168152602001806020018060200180602001848103845287818151815260200191508051906020019060200280838360005b83811015611b84578181015183820152602001611b6c565b50505050905001848103835286818151815260200191508051906020019060200280838360005b83811015611bc3578181015183820152602001611bab565b50505050905001848103825285818151815260200191508051906020019080838360005b83811015611bff578181015183820152602001611be7565b50505050905090810190601f168015611c2c5780820380516001836020036101000a031916815260200191505b5098505050505050505050602060405180830381600087803b158015611c5157600080fd5b505af1158015611c65573d6000803e3d6000fd5b505050506040513d6020811015611c7b57600080fd5b505190506001600160e01b0319811663d0e17c0b60e01b14611c9c57600080fd5b505b6009548114611cf4576040805162461bcd60e51b815260206004820152601f60248201527f5265656e7472616e637947756172643a207265656e7472616e742063616c6c00604482015290519081900360640190fd5b505050505050565b60006060611d09846118e4565b91505080518310611d1957600080fd5b808381518110611d2557fe5b602002602001015191505092915050565b60075481565b60065481565b6113d1838383604051806020016040528060008152506125de565b600090815260056020526040902054151590565b6000611d7b6118de565b8210611d8657600080fd5b60018281548110611d9357fe5b90600052602060002001549050919050565b600b546001600160a01b031690565b60006060611dc1836118e4565b51949350505050565b6000826001600160a01b0316846001600160a01b03161480611e065750836001600160a01b0316611dfb8385612b15565b6001600160a01b0316145b80611e165750611e168385612b3e565b80611e255750611e258461184c565b949350505050565b60086020526000908152604090205481565b600654600754604080516020808201939093526001600160a01b03808c16828401528a16606080830191909152608082018a905260a0820189905287151560c0808401919091528351808403909101815260e08301845280519085012061190160f01b61010084015261010283019590955261012280830195909552825180830390950185526101428201808452855195850195909520610162601f880186900490950283018501909352858552919360009384938493909291899189918291018382808284376000920182905250602085015160408601516060870151919a509850901a95509293505050601b8310159050611f3d57601b820191505b60008260ff16601b14158015611f5757508260ff16601c14155b15611f6457506000611fc8565b6040805160008152602080820180845289905260ff8616828401526060820188905260808201879052915160019260a0808401939192601f1981019281900390910190855afa158015611fbb573d6000803e3d6000fd5b5050506020604051035190505b6001600160a01b038d16612023576040805162461bcd60e51b815260206004820152601c60248201527f486f6c6465722063616e2774206265207a65726f206164647265737300000000604482015290519081900360640190fd5b806001600160a01b03168d6001600160a01b031614612089576040805162461bcd60e51b815260206004820152601960248201527f5369676e6572206164647265737320697320696e76616c696400000000000000604482015290519081900360640190fd5b8915806120965750894211155b6120dc576040805162461bcd60e51b815260206004820152601260248201527114195c9b5a5cdcda5bdb88195e1c1a5c995960721b604482015290519081900360640190fd5b6001600160a01b038d1660009081526008602052604090208054600181019091558b14612143576040805162461bcd60e51b815260206004820152601060248201526f139bdb98d9481a5cc81a5b9d985b1a5960821b604482015290519081900360640190fd5b88600360008f6001600160a01b03166001600160a01b0316815260200190815260200160002060008e6001600160a01b03166001600160a01b0316815260200190815260200160002060006101000a81548160ff0219169083151502179055508b6001600160a01b03168d6001600160a01b03167f17307eab39ab6107e8899845ad3d59bd9653f200f220920489ca2b5937696c318b604051808215151515815260200191505060405180910390a350505050505050505050505050565b81518351146122415760405162461bcd60e51b81526004018080602001828103825260368152602001806143f06036913960400191505060405180910390fd5b60008111612284576040805162461bcd60e51b815260206004820152601b6024820152600080516020614329833981519152604482015290519081900360640190fd5b60008351116122c8576040805162461bcd60e51b815260206004820152601b6024820152600080516020614329833981519152604482015290519081900360640190fd5b6122d183612e9b565b61230c5760405162461bcd60e51b81526004018080602001828103825260218152602001806145296021913960400191505060405180910390fd5b60005b83518110156123635761235b3385838151811061232857fe5b60200260200101516123568587868151811061234057fe5b602002602001015161382a90919063ffffffff16565b612f00565b60010161230f565b506000838360405160200180838051906020019060200280838360005b83811015612398578181015183820152602001612380565b50505050905001828051906020019060200280838360005b838110156123c85781810151838201526020016123b0565b50505050905001925050506040516020818303038152906040528051906020012060001c90506123f9818585613212565b611841813384613300565b60408051808201909152600381526204f4e560ec1b602082015290565b600b60009054906101000a90046001600160a01b03166001600160a01b031663da4fbe526040518163ffffffff1660e01b815260040160206040518083038186803b15801561246f57600080fd5b505afa158015612483573d6000803e3d6000fd5b505050506040513d602081101561249957600080fd5b50516040805180820190915260208082527f5553494e475f52454749535452593a4f4e4c595f434f52455f414c4c4f57454490820152906001600160a01b031633146125635760405162461bcd60e51b81526004018080602001828103825283818151815260200191508051906020019080838360005b83811015612528578181015183820152602001612510565b50505050905090810190601f1680156125555780820380516001836020036101000a031916815260200191505b509250505060405180910390fd5b506118418484848461388a565b3360008181526003602090815260408083206001600160a01b03871680855290835292819020805460ff1916861515908117909155815190815290519293927f17307eab39ab6107e8899845ad3d59bd9653f200f220920489ca2b5937696c31929181900390910190a35050565b600980546001908101918290556125fa90869086908690612d2f565b612606858585856138a0565b6126415760405162461bcd60e51b81526004018080602001828103825260328152602001806144596032913960400191505060405180910390fd5b6009548114612697576040805162461bcd60e51b815260206004820152601f60248201527f5265656e7472616e637947756172643a207265656e7472616e742063616c6c00604482015290519081900360640190fd5b5050505050565b81518351146126de5760405162461bcd60e51b81526004018080602001828103825260368152602001806143f06036913960400191505060405180910390fd5b60008111612721576040805162461bcd60e51b815260206004820152601b6024820152600080516020614329833981519152604482015290519081900360640190fd5b6000835111612765576040805162461bcd60e51b815260206004820152601b6024820152600080516020614329833981519152604482015290519081900360640190fd5b61276e83612e9b565b6127a95760405162461bcd60e51b81526004018080602001828103825260218152602001806145296021913960400191505060405180910390fd5b6000838360405160200180838051906020019060200280838360005b838110156127dd5781810151838201526020016127c5565b50505050905001828051906020019060200280838360005b8381101561280d5781810151838201526020016127f5565b50505050905001925050506040516020818303038152906040528051906020012060001c9050848114612887576040805162461bcd60e51b815260206004820152601f60248201527f544f4b454e5f4d494e5445523a57524f4e475f504f5254464f4c494f5f494400604482015290519081900360640190fd5b612892338684612f00565b60005b8451811015611cf4576128cb8582815181106128ad57fe5b6020026020010151336128c68688868151811061234057fe5b613300565b600101612895565b60606128de82611d5d565b612925576040805162461bcd60e51b8152602060048201526013602482015272151bdad95b88191bd95cdb89dd08195e1a5cdd606a1b604482015290519081900360640190fd5b600a612930836139d3565b604051602001808380546001816001161561010002031660029004801561298e5780601f1061296c57610100808354040283529182019161298e565b820191906000526020600020905b81548152906001019060200180831161297a575b5050825160208401908083835b602083106129ba5780518252601f19909201916020918201910161299b565b5181516020939093036101000a600019018019909116921691909117905264173539b7b760d91b92019182525060408051808303601a190181526005909201905295945050505050565b600b60009054906101000a90046001600160a01b03166001600160a01b031663da4fbe526040518163ffffffff1660e01b815260040160206040518083038186803b158015612a5257600080fd5b505afa158015612a66573d6000803e3d6000fd5b505050506040513d6020811015612a7c57600080fd5b50516040805180820190915260208082527f5553494e475f52454749535452593a4f4e4c595f434f52455f414c4c4f57454490820152906001600160a01b03163314612b095760405162461bcd60e51b8152602060048201818152835160248401528351909283926044909101919085019080838360008315612528578181015183820152602001612510565b506113d1838383613a94565b60009182526004602090815260408084206001600160a01b039384168552909152909120541690565b6001600160a01b03918216600090815260036020908152604080832093909416825291909152205460ff1690565b6009805460010190819055612b8386868686612d2f565b612b908686868686613b20565b611c9e5760405162461bcd60e51b81526004018080602001828103825260338152602001806144266033913960400191505060405180910390fd5b600b60009054906101000a90046001600160a01b03166001600160a01b031663da4fbe526040518163ffffffff1660e01b815260040160206040518083038186803b158015612c1957600080fd5b505afa158015612c2d573d6000803e3d6000fd5b505050506040513d6020811015612c4357600080fd5b50516040805180820190915260208082527f5553494e475f52454749535452593a4f4e4c595f434f52455f414c4c4f57454490820152906001600160a01b03163314612cd05760405162461bcd60e51b8152602060048201818152835160248401528351909283926044909101919085019080838360008315612528578181015183820152602001612510565b506113d1838383612f00565b6118418484848460405180602001604052806000815250611ab9565b61184184848484612d2f565b610100602082020491600790911690565b600181016020026101000382901c63ffffffff1692915050565b612d3a338584611dca565b612d7a576040805162461bcd60e51b815260206004820152600c60248201526b139bdd08185c1c1c9bdd995960a21b604482015290519081900360640190fd5b612d8484836112fa565b811115612dc25760405162461bcd60e51b81526004018080602001828103825260228152602001806145726022913960400191505060405180910390fd5b6001600160a01b038316612e12576040805162461bcd60e51b8152602060048201526012602482015271496e76616c696420746f206164647265737360701b604482015290519081900360640190fd5b612e1f8483836001613c7a565b612e2c8383836000613c7a565b81836001600160a01b0316856001600160a01b031660008051602061450983398151915260405160405180910390a481836001600160a01b0316856001600160a01b03166000805160206143ad833981519152846040518082815260200191505060405180910390a450505050565b8051600090815b81811015612ef657600080612eca86878581518110612ebd57fe5b6020026020010151613cf1565b91509150808015612eda57508282105b15612eec57600094505050505061136a565b5050600101612ea2565b5060019392505050565b6000612f0c84846112fa565b905081811015612f4d5760405162461bcd60e51b81526004018080602001828103825260218152602001806144ac6021913960400191505060405180910390fd5b612f5a8484846001613c7a565b60405183906000906001600160a01b03871690600080516020614509833981519152908390a460408051838152905184916000916001600160a01b038816916000805160206143ad833981519152919081900360200190a450505050565b606080612fcb878663ffffffff613d4316565b909250905060005b825181101561181b576000828281518110612fea57fe5b6020026020010151905061301c89828151811061300357fe5b6020026020010151336128c6888c868151811061234057fe5b50600101612fd3565b606080613038858863ffffffff613d4316565b909250905060005b825181101561181b57600082828151811061305757fe5b602002602001015190506130893388838151811061307157fe5b6020026020010151612356888a868151811061234057fe5b50600101613040565b606080806130a6888763ffffffff613ec216565b9194509250905060005b83518110156132075760008382815181106130c757fe5b6020026020010151905060008383815181106130df57fe5b602002602001015190508781815181106130f557fe5b60200260200101518a838151811061310957fe5b6020026020010151111561317557600088828151811061312557fe5b60200260200101518b848151811061313957fe5b602002602001015103905061316f8c848151811061315357fe5b6020026020010151336128c68b8561382a90919063ffffffff16565b506131fd565b87818151811061318157fe5b60200260200101518a838151811061319557fe5b602002602001015110156131fd5760008a83815181106131b157fe5b60200260200101518983815181106131c557fe5b60200260200101510390506131fb338d85815181106131e057fe5b60200260200101516123568b8561382a90919063ffffffff16565b505b50506001016130b0565b505050505050505050565b61321b83611d5d565b6113d157600260056000858152602001908152602001600020819055507f942e21426178d7f44f5fc38ad086c24504b41d256a2f125368d8e097de99fd8c838383604051808481526020018060200180602001838103835285818151815260200191508051906020019060200280838360005b838110156132a657818101518382015260200161328e565b50505050905001838103825284818151815260200191508051906020019060200280838360005b838110156132e55781810151838201526020016132cd565b505050509050019550505050505060405180910390a1505050565b61330983611d5d565b6133505760008381526005602052604081206001908190558054808201825591527fb10e2d527612073b26eecdfd717e6a320cf44b4afac2b0732d9fcbe2b7fa0cf6018390555b61335d8284836000613c7a565b60405183906001600160a01b03841690600090600080516020614509833981519152908290a460408051828152905184916001600160a01b038516916000916000805160206143ad833981519152919081900360200190a4505050565b83336001600160a01b03821614806133f557506001600160a01b038116600090815260036020908152604080832033845290915290205460ff165b6134305760405162461bcd60e51b815260040180806020018281038252602881526020018061454a6028913960400191505060405180910390fd5b81518351146134705760405162461bcd60e51b81526004018080602001828103825260268152602001806143496026913960400191505060405180910390fd5b6001600160a01b0384166134c0576040805162461bcd60e51b8152602060048201526012602482015271496e76616c696420746f206164647265737360701b604482015290519081900360640190fd5b82516001600160a01b0386811690861614156135925760005b8181101561358b578481815181106134ed57fe5b6020026020010151866001600160a01b0316886001600160a01b031660008051602061450983398151915260405160405180910390a484818151811061352f57fe5b6020026020010151866001600160a01b0316886001600160a01b03166000805160206143ad83398151915287858151811061356657fe5b60200260200101516040518082815260200191505060405180910390a46001016134d9565b5050612697565b60005b8181101561371b576135ba878683815181106135ad57fe5b60200260200101516112fa565b8482815181106135c657fe5b6020026020010151111561360b5760405162461bcd60e51b81526004018080602001828103825260228152602001806145726022913960400191505060405180910390fd5b61363e8786838151811061361b57fe5b602002602001015186848151811061362f57fe5b60200260200101516001613c7a565b6136718686838151811061364e57fe5b602002602001015186848151811061366257fe5b60200260200101516000613c7a565b84818151811061367d57fe5b6020026020010151866001600160a01b0316886001600160a01b031660008051602061450983398151915260405160405180910390a48481815181106136bf57fe5b6020026020010151866001600160a01b0316886001600160a01b03166000805160206143ad8339815191528785815181106136f657fe5b60200260200101516040518082815260200191505060405180910390a4600101613595565b50846001600160a01b0316866001600160a01b03167ff59807b2c31ca3ba212e90599175c120c556422950bac5be656274483e8581df8686604051808060200180602001838103835285818151815260200191508051906020019060200280838360005b8381101561379757818101518382015260200161377f565b50505050905001838103825284818151815260200191508051906020019060200280838360005b838110156137d65781810151838201526020016137be565b5050505090500194505050505060405180910390a3505050505050565b6000813f7fc5d2460186f7233c927e7db2dcc703c0e500b653ca82273b7bfad8045d85a4708115801590611e255750141592915050565b60008261383957506000611346565b8282028284828161384657fe5b04146138835760405162461bcd60e51b815260040180806020018281038252602181526020018061448b6021913960400191505060405180910390fd5b9392505050565b613895848383613a94565b611841838383614098565b60006138b4846001600160a01b03166137f3565b6138c057506001611e25565b604051630a85bd0160e11b815233600482018181526001600160a01b03888116602485015260448401879052608060648501908152865160848601528651600095928a169463150b7a029490938c938b938b939260a4019060208501908083838e5b8381101561393a578181015183820152602001613922565b50505050905090810190601f1680156139675780820380516001836020036101000a031916815260200191505b5095505050505050602060405180830381600087803b15801561398957600080fd5b505af115801561399d573d6000803e3d6000fd5b505050506040513d60208110156139b357600080fd5b50516001600160e01b031916630a85bd0160e11b14915050949350505050565b6060816139f857506040805180820190915260018152600360fc1b602082015261136a565b8160005b8115613a1057600101600a820491506139fc565b6060816040519080825280601f01601f191660200182016040528015613a3d576020820181803883390190505b50905060001982015b8515613a8b57600a860660300160f81b82828060019003935081518110613a6957fe5b60200101906001600160f81b031916908160001a905350600a86049550613a46565b50949350505050565b60008273__LibPosition___________________________63a085725990916040518263ffffffff1660e01b81526004018082815260200191505060206040518083038186803b158015613ae757600080fd5b505af4158015613afb573d6000803e3d6000fd5b505050506040513d6020811015613b1157600080fd5b50519050611841818584613300565b6000613b34856001600160a01b03166137f3565b613b4057506001613c71565b6000856001600160a01b031663f891ffe033898888886040518663ffffffff1660e01b815260040180866001600160a01b03166001600160a01b03168152602001856001600160a01b03166001600160a01b0316815260200184815260200183815260200180602001828103825283818151815260200191508051906020019080838360005b83811015613bde578181015183820152602001613bc6565b50505050905090810190601f168015613c0b5780820380516001836020036101000a031916815260200191505b509650505050505050602060405180830381600087803b158015613c2e57600080fd5b505af1158015613c42573d6000803e3d6000fd5b505050506040513d6020811015613c5857600080fd5b50516001600160e01b0319166307c48fff60e51b149150505b95945050505050565b600080613c8685612d04565b6001600160a01b03881660009081526002602090815260408083208584529091529020549193509150613cc19082868663ffffffff6140eb16565b6001600160a01b039096166000908152600260209081526040808320948352939052919091209490945550505050565b81516000908190815b81811015613d325784868281518110613d0f57fe5b60200260200101511415613d2a57925060019150613d3c9050565b600101613cfa565b5060009250829150505b9250929050565b606080600084519050606081604051908082528060200260200182016040528015613d78578160200160208202803883390190505b5090506000805b83811015613ddb576000888281518110613d9557fe5b60200260200101519050613da988826141c3565b613dd2576001848381518110613dbb57fe5b911515602092830291909101909101526001909201915b50600101613d7f565b50606081604051908082528060200260200182016040528015613e08578160200160208202803883390190505b509050606082604051908082528060200260200182016040528015613e37578160200160208202803883390190505b5090506000805b86811015613eb257858181518110613e5257fe5b602002602001015115613eaa578a8181518110613e6b57fe5b6020026020010151848381518110613e7f57fe5b60200260200101818152505080838381518110613e9857fe5b60209081029190910101526001909101905b600101613e3e565b5091999098509650505050505050565b6060806060600085519050606081604051908082528060200260200182016040528015613ef9578160200160208202803883390190505b5090506000805b83811015613f5757613f25888a8381518110613f1857fe5b60200260200101516141c3565b15613f4f576001838281518110613f3857fe5b911515602092830291909101909101526001909101905b600101613f00565b50606081604051908082528060200260200182016040528015613f84578160200160208202803883390190505b509050606082604051908082528060200260200182016040528015613fb3578160200160208202803883390190505b509050606083604051908082528060200260200182016040528015613fe2578160200160208202803883390190505b5090506000805b8781101561408657868181518110613ffd57fe5b60200260200101511561407e578c818151811061401657fe5b602002602001015185838151811061402a57fe5b6020026020010181815250508084838151811061404357fe5b60200260200101818152505061405f8c8e8381518110612ebd57fe5b5083838151811061406c57fe5b60209081029190910101526001909101905b600101613fe9565b50929b919a5098509650505050505050565b60008273__LibPosition___________________________635b667cf990916040518263ffffffff1660e01b81526004018082815260200191505060206040518083038186803b158015613ae757600080fd5b600080808360028111156140fb57fe5b141561412e5761410b8686612d15565b90506141278686614122848863ffffffff6141d016565b61422a565b9150613a8b565b600183600281111561413c57fe5b14156141635761414c8686612d15565b90506141278686614122848863ffffffff61429116565b600283600281111561417157fe5b14156141825761412786868661422a565b6040805162461bcd60e51b815260206004820152601160248201527024b73b30b634b21037b832b930ba34b7b760791b604482015290519081900360640190fd5b6000806113418484613cf1565b600082820183811015613883576040805162461bcd60e51b815260206004820152601b60248201527f536166654d6174683a206164646974696f6e206f766572666c6f770000000000604482015290519081900360640190fd5b6000600160201b821061426e5760405162461bcd60e51b81526004018080602001828103825260238152602001806143cd6023913960400191505060405180910390fd5b5063ffffffff600183016020026101000390811b1984169082901b179392505050565b600061388383836040518060400160405280601e81526020017f536166654d6174683a207375627472616374696f6e206f766572666c6f770000815250600081848411156143205760405162461bcd60e51b8152602060048201818152835160248401528351909283926044909101919085019080838360008315612528578181015183820152602001612510565b50505090039056fe544f4b454e5f4d494e5445523a57524f4e475f5155414e544954590000000000496e636f6e73697374656e74206172726179206c656e677468206265747765656e2061726773544f4b454e5f4d494e5445523a494e495449414c5f544f4b454e5f4944535f414e445f524154494f5f4c454e4754485f444f45535f4e4f545f4d415443482114851a3e2a54429989f46c1ab0743e37ded205d9bbdfd85635aed5bd595a06416d6f756e7420746f20777269746520696e2062696e20697320746f6f206c61726765544f4b454e5f4d494e5445523a544f4b454e5f4944535f414e445f524154494f5f4c454e4754485f444f45535f4e4f545f4d4154434853656e7420746f206120636f6e7472616374207768696368206973206e6f7420616e204552433732314f20726563656976657253656e7420746f206120636f6e7472616374207768696368206973206e6f7420616e20455243373231207265636569766572536166654d6174683a206d756c7469706c69636174696f6e206f766572666c6f77544f4b454e5f4d494e5445523a4e4f545f454e4f5547485f504f534954494f4e53544f4b454e5f4d494e5445523a46494e414c5f544f4b454e5f4944535f414e445f524154494f5f4c454e4754485f444f45535f4e4f545f4d41544348ddf252ad1be2c89b69c2b068fc378daa952ba7f163c4a11628f55a4df523b3ef544f4b454e5f4d494e5445523a544f4b454e5f4944535f4e4f545f554e495155456d73672e73656e646572206973206e656974686572205f66726f6d206e6f72206f70657261746f725175616e746974792067726561746572207468616e2066726f6d2062616c616e6365a265627a7a7231582031a34340fe4c95682f7b19c3a0a3ad8205813ba32a89071375b9e3e7fcab578d64736f6c63430005100032454950373132446f6d61696e28737472696e67206e616d652c737472696e672076657273696f6e2c6164647265737320766572696679696e67436f6e7472616374295065726d6974286164647265737320686f6c6465722c61646472657373207370656e6465722c75696e74323536206e6f6e63652c75696e74323536206578706972792c626f6f6c20616c6c6f77656429",
  "source": "pragma solidity 0.5.16;\n\nimport \"erc721o/contracts/ERC721OBackwardCompatible.sol\";\n\nimport \"./Lib/UsingRegistry.sol\";\n\n/// @title Opium.TokenMinter contract implements ERC721O token standard for minting, burning and transferring position tokens\ncontract TokenMinter is ERC721OBackwardCompatible, UsingRegistry {\n    /// @notice Calls constructors of super-contracts\n    /// @param _baseTokenURI string URI for token explorers\n    /// @param _registry address Address of Opium.registry\n    constructor(string memory _baseTokenURI, address _registry) public ERC721OBackwardCompatible(_baseTokenURI) UsingRegistry(_registry) {}\n\n    /// @notice Mints LONG and SHORT position tokens\n    /// @param _buyer address Address of LONG position receiver\n    /// @param _seller address Address of SHORT position receiver\n    /// @param _derivativeHash bytes32 Hash of derivative (ticker) of position\n    /// @param _quantity uint256 Quantity of positions to mint\n    function mint(address _buyer, address _seller, bytes32 _derivativeHash, uint256 _quantity) external onlyCore {\n        _mint(_buyer, _seller, _derivativeHash, _quantity);\n    }\n\n    /// @notice Mints only LONG position tokens for \"pooled\" derivatives\n    /// @param _buyer address Address of LONG position receiver\n    /// @param _derivativeHash bytes32 Hash of derivative (ticker) of position\n    /// @param _quantity uint256 Quantity of positions to mint\n    function mint(address _buyer, bytes32 _derivativeHash, uint256 _quantity) external onlyCore {\n        _mintLong(_buyer, _derivativeHash, _quantity);\n    }\n\n    /// @notice Burns position tokens\n    /// @param _tokenOwner address Address of tokens owner\n    /// @param _tokenId uint256 tokenId of positions to burn\n    /// @param _quantity uint256 Quantity of positions to burn\n    function burn(address _tokenOwner, uint256 _tokenId, uint256 _quantity) external onlyCore {\n        _burn(_tokenOwner, _tokenId, _quantity);\n    }\n\n    /// @notice ERC721 interface compatible function for position token name retrieving\n    /// @return Returns name of token\n    function name() external view returns (string memory) {\n        return \"Opium Network Position Token\";\n    }\n\n    /// @notice ERC721 interface compatible function for position token symbol retrieving\n    /// @return Returns symbol of token\n    function symbol() external view returns (string memory) {\n        return \"ONP\";\n    }\n\n    /// VIEW FUNCTIONS\n\n    /// @notice Checks whether _spender is approved to spend tokens on _owners behalf or owner itself\n    /// @param _spender address Address of spender\n    /// @param _owner address Address of owner\n    /// @param _tokenId address tokenId of interest\n    /// @return Returns whether _spender is approved to spend tokens\n    function isApprovedOrOwner(\n        address _spender,\n        address _owner,\n        uint256 _tokenId\n    ) public view returns (bool) {\n        return (\n        _spender == _owner ||\n        getApproved(_tokenId, _owner) == _spender ||\n        isApprovedForAll(_owner, _spender) ||\n        isOpiumSpender(_spender)\n        );\n    }\n\n    /// @notice Checks whether _spender is Opium.TokenSpender\n    /// @return Returns whether _spender is Opium.TokenSpender\n    function isOpiumSpender(address _spender) public view returns (bool) {\n        return _spender == registry.getTokenSpender();\n    }\n}\n",
  "sourcePath": "/Users/calvin/Documents/DO/0156_OpiumTests/opium-contracts/contracts/TokenMinter.sol",
  "compiler": {
    "name": "solc",
    "version": "0.5.16+commit.9c3226ce.Emscripten.clang"
  },
  "schemaVersion": "3.4.1",
  "updatedAt": "2021-07-19T14:48:37.169Z",
  "networkType": "ethereum",
  "devdoc": {
    "methods": {
      "approve(address,uint256)": {
        "details": "Approves another address to transfer the given token ID The zero address indicates there is no approved address. There can only be one approved address per token at a given time. Can only be called by the token owner or an approved operator.",
        "params": {
          "_to": "address to be approved for the given token ID",
          "_tokenId": "uint256 ID of the token to be approved"
        }
      },
      "balanceOf(address)": {
        "details": "Gets the number of tokens owned by the address we are checking",
        "params": {
          "_owner": "The adddress we are checking"
        },
        "return": "balance The unique amount of tokens owned"
      },
      "balanceOf(address,uint256)": {
        "details": "return the _tokenId type' balance of _address",
        "params": {
          "_address": "Address to query balance of",
          "_tokenId": "type to query balance of"
        },
        "return": "Amount of objects of a given type ID"
      },
      "burn(address,uint256,uint256)": {
        "params": {
          "_quantity": "uint256 Quantity of positions to burn",
          "_tokenId": "uint256 tokenId of positions to burn",
          "_tokenOwner": "address Address of tokens owner"
        }
      },
      "constructor": {
        "params": {
          "_baseTokenURI": "string URI for token explorers",
          "_registry": "address Address of Opium.registry"
        }
      },
      "exists(uint256)": {
        "details": "Returns whether the specified token exists",
        "params": {
          "_tokenId": "uint256 ID of the token to query the existence of"
        },
        "return": "whether the token exists"
      },
      "getApproved(uint256)": {
        "details": "Gets the approved address for a token ID, or zero if no address set",
        "params": {
          "_tokenId": "uint256 ID of the token to query the approval of"
        },
        "return": "address currently approved for the given token ID"
      },
      "getApproved(uint256,address)": {
        "details": "Gets the approved address for a token ID, or zero if no address set",
        "params": {
          "_tokenId": "uint256 ID of the token to query the approval of"
        },
        "return": "address currently approved for the given token ID"
      },
      "getRegistry()": {
        "return": "address Address of registry set in current contract"
      },
      "isApprovedForAll(address,address)": {
        "details": "Function that verifies whether _operator is an authorized operator of _tokenHolder.",
        "params": {
          "_operator": "The address of the operator to query status of",
          "_owner": "Address of the tokenHolder"
        },
        "return": "A uint256 specifying the amount of tokens still available for the spender."
      },
      "isApprovedOrOwner(address,address,uint256)": {
        "params": {
          "_owner": "address Address of owner",
          "_spender": "address Address of spender",
          "_tokenId": "address tokenId of interest"
        },
        "return": "Returns whether _spender is approved to spend tokens"
      },
      "isOpiumSpender(address)": {
        "return": "Returns whether _spender is Opium.TokenSpender"
      },
      "mint(address,address,bytes32,uint256)": {
        "params": {
          "_buyer": "address Address of LONG position receiver",
          "_derivativeHash": "bytes32 Hash of derivative (ticker) of position",
          "_quantity": "uint256 Quantity of positions to mint",
          "_seller": "address Address of SHORT position receiver"
        }
      },
      "mint(address,bytes32,uint256)": {
        "params": {
          "_buyer": "address Address of LONG position receiver",
          "_derivativeHash": "bytes32 Hash of derivative (ticker) of position",
          "_quantity": "uint256 Quantity of positions to mint"
        }
      },
      "name()": {
        "return": "Returns name of token"
      },
      "ownerOf(uint256)": {
        "details": "Gets the owner of a given NFT",
        "params": {
          "_tokenId": "uint256 representing the unique token identifier"
        },
        "return": "address the owner of the token"
      },
      "safeBatchTransferFrom(address,address,uint256[],uint256[],bytes)": {
        "details": "transfer objects from different tokenIds to specified address",
        "params": {
          "_amounts": "Array of amount of object per type to be transferred.",
          "_data": "Data to pass to onERC721OReceived() function if recipient is contract Note:  Arrays should be sorted so that all tokenIds in a same bin are adjacent (more efficient).",
          "_from": "The address to BatchTransfer objects from.",
          "_to": "The address to batchTransfer objects to.",
          "_tokenIds": "Array of tokenIds to update balance of"
        }
      },
      "setApprovalForAll(address,bool)": {
        "details": "Will set _operator operator status to true or false",
        "params": {
          "_approved": "_operator's new operator status (true or false)",
          "_operator": "Address to changes operator status."
        }
      },
      "supportsInterface(bytes4)": {
        "details": "See {IERC165-supportsInterface}.     * Time complexity O(1), guaranteed to always use less than 30 000 gas."
      },
      "symbol()": {
        "return": "Returns symbol of token"
      },
      "tokenByIndex(uint256)": {
        "details": "Gets the token ID at a given index of all the tokens in this contract Reverts if the index is greater or equal to the total number of tokens",
        "params": {
          "_index": "uint256 representing the index to be accessed of the tokens list"
        },
        "return": "uint256 token ID at the given index of the tokens list"
      },
      "tokensOwned(address)": {
        "details": "Gets Iterate through the list of existing tokens and return the indexes       and balances of the tokens owner by the user",
        "params": {
          "_owner": "The adddress we are checking"
        },
        "return": "indexes The tokenIdsbalances The balances of each token"
      },
      "totalSupply()": {
        "details": "Gets the total amount of tokens stored by the contract",
        "return": "uint256 representing the total amount of tokens"
      }
    },
    "title": "Opium.TokenMinter contract implements ERC721O token standard for minting, burning and transferring position tokens"
  },
  "userdoc": {
    "methods": {
      "burn(address,uint256,uint256)": {
        "notice": "Burns position tokens"
      },
      "constructor": "Calls constructors of super-contracts",
      "getRegistry()": {
        "notice": "Getter for registry variable"
      },
      "isApprovedOrOwner(address,address,uint256)": {
        "notice": "VIEW FUNCTIONSChecks whether _spender is approved to spend tokens on _owners behalf or owner itself"
      },
      "isOpiumSpender(address)": {
        "notice": "Checks whether _spender is Opium.TokenSpender"
      },
      "mint(address,address,bytes32,uint256)": {
        "notice": "Mints LONG and SHORT position tokens"
      },
      "mint(address,bytes32,uint256)": {
        "notice": "Mints only LONG position tokens for \"pooled\" derivatives"
      },
      "name()": {
        "notice": "ERC721 interface compatible function for position token name retrieving"
      },
      "permit(address,address,uint256,uint256,bool,bytes)": {
        "notice": "Approve for all by signature"
      },
      "symbol()": {
        "notice": "ERC721 interface compatible function for position token symbol retrieving"
      }
    }
  }
}